{
  "contractName": "BancorFormula",
  "abi": [
    {
      "constant": true,
      "inputs": [
        {
          "name": "_supply",
          "type": "uint256"
        },
        {
          "name": "_connectorBalance",
          "type": "uint256"
        },
        {
          "name": "_connectorWeight",
          "type": "uint32"
        },
        {
          "name": "_depositAmount",
          "type": "uint256"
        }
      ],
      "name": "calculatePurchaseReturn",
      "outputs": [
        {
          "name": "",
          "type": "uint256"
        }
      ],
      "payable": false,
      "stateMutability": "view",
      "type": "function"
    },
    {
      "constant": true,
      "inputs": [
        {
          "name": "_supply",
          "type": "uint256"
        },
        {
          "name": "_connectorBalance",
          "type": "uint256"
        },
        {
          "name": "_connectorWeight",
          "type": "uint32"
        },
        {
          "name": "_sellAmount",
          "type": "uint256"
        }
      ],
      "name": "calculateSaleReturn",
      "outputs": [
        {
          "name": "",
          "type": "uint256"
        }
      ],
      "payable": false,
      "stateMutability": "view",
      "type": "function"
    },
    {
      "constant": true,
      "inputs": [],
      "name": "version",
      "outputs": [
        {
          "name": "",
          "type": "string"
        }
      ],
      "payable": false,
      "stateMutability": "view",
      "type": "function"
    },
    {
      "inputs": [],
      "payable": false,
      "stateMutability": "nonpayable",
      "type": "constructor"
    }
  ],
  "bytecode": "0x60606040526040805190810160405280600381526020017f302e330000000000000000000000000000000000000000000000000000000000815250600090805190602001906200005192919062000f54565b5034156200005e57600080fd5b701c35fedd14ffffffffffffffffffffffff600160206080811015156200008157fe5b0181905550701b0ce43b323fffffffffffffffffffffff60016021608081101515620000a957fe5b01819055507019f0028ec1ffffffffffffffffffffffff60016022608081101515620000d157fe5b01819055507018ded91f0e7fffffffffffffffffffffff60016023608081101515620000f957fe5b01819055507017d8ec7f0417ffffffffffffffffffffff600160246080811015156200012157fe5b01819055507016ddc6556cdbffffffffffffffffffffff600160256080811015156200014957fe5b01819055507015ecf52776a1ffffffffffffffffffffff600160266080811015156200017157fe5b01819055507015060c256cb2ffffffffffffffffffffff600160276080811015156200019957fe5b0181905550701428a2f98d72ffffffffffffffffffffff60016028608081101515620001c157fe5b01819055507013545598e5c23fffffffffffffffffffff60016029608081101515620001e957fe5b0181905550701288c4161ce1dfffffffffffffffffffff6001602a6080811015156200021157fe5b01819055507011c592761c666fffffffffffffffffffff6001602b6080811015156200023957fe5b018190555070110a688680a757ffffffffffffffffffff6001602c6080811015156200026157fe5b0181905550701056f1b5bedf77ffffffffffffffffffff6001602d6080811015156200028957fe5b0181905550700faadceceeff8bffffffffffffffffffff6001602e608081101515620002b157fe5b0181905550700f05dc6b27edadffffffffffffffffffff6001602f608081101515620002d957fe5b0181905550700e67a5a25da4107fffffffffffffffffff600160306080811015156200030157fe5b0181905550700dcff115b14eedffffffffffffffffffff600160316080811015156200032957fe5b0181905550700d3e7a392431239fffffffffffffffffff600160326080811015156200035157fe5b0181905550700cb2ff529eb71e4fffffffffffffffffff600160336080811015156200037957fe5b0181905550700c2d415c3db974afffffffffffffffffff60016034608081101515620003a157fe5b0181905550700bad03e7d883f69bffffffffffffffffff60016035608081101515620003c957fe5b0181905550700b320d03b2c343d5ffffffffffffffffff60016036608081101515620003f157fe5b0181905550700abc25204e02828dffffffffffffffffff600160376080811015156200041957fe5b0181905550700a4b16f74ee4bb207fffffffffffffffff600160386080811015156200044157fe5b01819055507009deaf736ac1f569ffffffffffffffffff600160396080811015156200046957fe5b0181905550700976bd9952c7aa957fffffffffffffffff6001603a6080811015156200049157fe5b01819055507009131271922eaa606fffffffffffffffff6001603b608081101515620004b957fe5b01819055507008b380f3558668c46fffffffffffffffff6001603c608081101515620004e157fe5b0181905550700857ddf0117efa215bffffffffffffffff6001603d6080811015156200050957fe5b01819055507007ffffffffffffffffffffffffffffffff6001603e6080811015156200053157fe5b01819055507007abbf6f6abb9d087fffffffffffffffff6001603f6080811015156200055957fe5b018190555070075af62cbac95f7dfa7fffffffffffffff600160406080811015156200058157fe5b018190555070070d7fb7452e187ac13fffffffffffffff60016041608081101515620005a957fe5b01819055507006c3390ecc8af379295fffffffffffffff60016042608081101515620005d157fe5b018190555070067c00a3b07ffc01fd6fffffffffffffff60016043608081101515620005f957fe5b0181905550700637b647c39cbb9d3d27ffffffffffffff600160446080811015156200062157fe5b01819055507005f63b1fc104dbd39587ffffffffffffff600160456080811015156200064957fe5b01819055507005b771955b36e12f7235ffffffffffffff600160466080811015156200067157fe5b018190555070057b3d49dda84556d6f6ffffffffffffff600160476080811015156200069957fe5b018190555070054183095b2c8ececf30ffffffffffffff60016048608081101515620006c157fe5b018190555070050a28be635ca2b888f77fffffffffffff60016049608081101515620006e957fe5b01819055507004d5156639708c9db33c3fffffffffffff6001604a6080811015156200071157fe5b01819055507004a23105873875bd52dfdfffffffffffff6001604b6080811015156200073957fe5b0181905550700471649d87199aa990756fffffffffffff6001604c6080811015156200076157fe5b01819055507004429a21a029d4c1457cfbffffffffffff6001604d6080811015156200078957fe5b0181905550700415bc6d6fb7dd71af2cb3ffffffffffff6001604e608081101515620007b157fe5b01819055507003eab73b3bbfe282243ce1ffffffffffff6001604f608081101515620007d957fe5b01819055507003c1771ac9fb6b4c18e229ffffffffffff600160506080811015156200080157fe5b0181905550700399e96897690418f785257fffffffffff600160516080811015156200082957fe5b0181905550700373fc456c53bb779bf0ea9fffffffffff600160526080811015156200085157fe5b018190555070034f9e8e490c48e67e6ab8bfffffffffff600160536080811015156200087957fe5b018190555070032cbfd4a7adc790560b3337ffffffffff60016054608081101515620008a157fe5b018190555070030b50570f6e5d2acca94613ffffffffff60016055608081101515620008c957fe5b01819055507002eb40f9f620fda6b56c2861ffffffffff60016056608081101515620008f157fe5b01819055507002cc8340ecb0d0f520a6af58ffffffffff600160576080811015156200091957fe5b01819055507002af09481380a0a35cf1ba02ffffffffff600160586080811015156200094157fe5b0181905550700292c5bdd3b92ec810287b1b3fffffffff600160596080811015156200096957fe5b0181905550700277abdcdab07d5a77ac6d6b9fffffffff6001605a6080811015156200099157fe5b018190555070025daf6654b1eaa55fd64df5efffffffff6001605b608081101515620009b957fe5b0181905550700244c49c648baa98192dce88b7ffffffff6001605c608081101515620009e157fe5b018190555070022ce03cd5619a311b2471268bffffffff6001605d60808110151562000a0957fe5b0181905550700215f77c045fbe885654a44a0fffffffff6001605e60808110151562000a3157fe5b01819055507001ffffffffffffffffffffffffffffffff6001605f60808110151562000a5957fe5b01819055507001eaefdbdaaee7421fc4d3ede5ffffffff6001606060808110151562000a8157fe5b01819055507001d6bd8b2eb257df7e8ca57b09bfffffff6001606160808110151562000aa957fe5b01819055507001c35fedd14b861eb0443f7f133fffffff6001606260808110151562000ad157fe5b01819055507001b0ce43b322bcde4a56e8ada5afffffff6001606360808110151562000af957fe5b018190555070019f0028ec1fff007f5a195a39dfffffff6001606460808110151562000b2157fe5b018190555070018ded91f0e72ee74f49b15ba527ffffff6001606560808110151562000b4957fe5b018190555070017d8ec7f04136f4e5615fd41a63ffffff6001606660808110151562000b7157fe5b018190555070016ddc6556cdb84bdc8d12d22e6fffffff6001606760808110151562000b9957fe5b018190555070015ecf52776a1155b5bd8395814f7fffff6001606860808110151562000bc157fe5b018190555070015060c256cb23b3b3cc3754cf40ffffff6001606960808110151562000be957fe5b01819055507001428a2f98d728ae223ddab715be3fffff6001606a60808110151562000c1157fe5b018190555070013545598e5c23276ccf0ede68034fffff6001606b60808110151562000c3957fe5b01819055507001288c4161ce1d6f54b7f61081194fffff6001606c60808110151562000c6157fe5b018190555070011c592761c666aa641d5a01a40f17ffff6001606d60808110151562000c8957fe5b0181905550700110a688680a7530515f3e6e6cfdcdffff6001606e60808110151562000cb157fe5b01819055507001056f1b5bedf75c6bcb2ce8aed428ffff6001606f60808110151562000cd957fe5b01819055506ffaadceceeff8a0890f3875f008277fff6001607060808110151562000d0057fe5b01819055506ff05dc6b27edad306388a600f6ba0bfff6001607160808110151562000d2757fe5b01819055506fe67a5a25da41063de1495d5b18cdbfff6001607260808110151562000d4e57fe5b01819055506fdcff115b14eedde6fc3aa5353f2e4fff6001607360808110151562000d7557fe5b01819055506fd3e7a3924312399f9aae2e0f868f8fff6001607460808110151562000d9c57fe5b01819055506fcb2ff529eb71e41582cccd5a1ee26fff6001607560808110151562000dc357fe5b01819055506fc2d415c3db974ab32a51840c0b67edff6001607660808110151562000dea57fe5b01819055506fbad03e7d883f69ad5b0a186184e06bff6001607760808110151562000e1157fe5b01819055506fb320d03b2c343d4829abd6075f0cc5ff6001607860808110151562000e3857fe5b01819055506fabc25204e02828d73c6e80bcdb1a95bf6001607960808110151562000e5f57fe5b01819055506fa4b16f74ee4bb2040a1ec6c15fbbf2df6001607a60808110151562000e8657fe5b01819055506f9deaf736ac1f569deb1b5ae3f36c130f6001607b60808110151562000ead57fe5b01819055506f976bd9952c7aa957f5937d790ef650376001607c60808110151562000ed457fe5b01819055506f9131271922eaa6064b73a22d0bd4f2bf6001607d60808110151562000efb57fe5b01819055506f8b380f3558668c46c91c49a2f8e967b96001607e60808110151562000f2257fe5b01819055506f857ddf0117efa215952912839f6473e66001607f60808110151562000f4957fe5b018190555062001003565b828054600181600116156101000203166002900490600052602060002090601f016020900481019282601f1062000f9757805160ff191683800117855562000fc8565b8280016001018555821562000fc8579182015b8281111562000fc757825182559160200191906001019062000faa565b5b50905062000fd7919062000fdb565b5090565b6200100091905b8082111562000ffc57600081600090555060010162000fe2565b5090565b90565b610bcc80620010136000396000f300606060405260043610610057576000357c0100000000000000000000000000000000000000000000000000000000900463ffffffff16806329a00e7c1461005c57806349f9b0f7146100b457806354fd4d501461010c575b600080fd5b341561006757600080fd5b61009e600480803590602001909190803590602001909190803563ffffffff1690602001909190803590602001909190505061019a565b6040518082815260200191505060405180910390f35b34156100bf57600080fd5b6100f6600480803590602001909190803590602001909190803563ffffffff16906020019091908035906020019091905050610279565b6040518082815260200191505060405180910390f35b341561011757600080fd5b61011f61037d565b6040518080602001828103825283818151815260200191508051906020019080838360005b8381101561015f578082015181840152602081019050610144565b50505050905090810190601f16801561018c5780820380516001836020036101000a031916815260200191505b509250505060405180910390f35b600080600080600080891180156101b15750600088115b80156101c3575060008763ffffffff16115b80156101de5750620f424063ffffffff168763ffffffff1611155b15156101e957600080fd5b60008614156101fb576000945061026d565b620f424063ffffffff168763ffffffff16141561022e578761021d8a8861041b565b81151561022657fe5b04945061026d565b610238868961044e565b9150610249828989620f424061046c565b80945081955050508260ff1661025f8a8661041b565b9060020a9004905088810394505b50505050949350505050565b60008060008060008060008a1180156102925750600089115b80156102a4575060008863ffffffff16115b80156102bf5750620f424063ffffffff168863ffffffff1611155b80156102cb5750898711155b15156102d657600080fd5b60008714156102e85760009550610370565b898714156102f857889550610370565b620f424063ffffffff168863ffffffff16141561032b578961031a8a8961041b565b81151561032357fe5b049550610370565b868a03925061033f8a84620f42408b61046c565b8095508196505050610351898661041b565b91508360ff16899060020a0290508481830381151561036c57fe5b0495505b5050505050949350505050565b60008054600181600116156101000203166002900480601f0160208091040260200160405190810160405280929190818152602001828054600181600116156101000203166002900480156104135780601f106103e857610100808354040283529160200191610413565b820191906000526020600020905b8154815290600101906020018083116103f657829003601f168201915b505050505081565b6000808284029050600084148061043c575082848281151561043957fe5b04145b151561044457fe5b8091505092915050565b600080828401905083811015151561046257fe5b8091505092915050565b6000806000808463ffffffff168663ffffffff1661048a8a8a6104c9565b0281151561049457fe5b0491506104a082610630565b90506104b981607f0360ff16839060020a9004826106f0565b8193509350505094509492505050565b60008060008060007001ffffffffffffffffffffffffffffffff87111515156104ee57fe5b60009350856f80000000000000000000000000000000880281151561050f57fe5b04925070010000000000000000000000000000000083101515610578576105506f800000000000000000000000000000008481151561054a57fe5b04610b14565b91508160ff16839060020a900492506f800000000000000000000000000000008260ff160293505b6f8000000000000000000000000000000083111561060657607f90505b60008160ff161115610605576f800000000000000000000000000000008384028115156105be57fe5b049250700100000000000000000000000000000000831015156105f9576001839060020a900492506001810360ff1660019060020a02840193505b80600190039050610595565b5b607a60ff166f02c5c85fdf473de6af278ece600fcbda85029060020a900494505050505092915050565b60008060008060209250607f91505b8160ff166001840160ff16101561069157600282840160ff1681151561066157fe5b0490508460018260ff1660808110151561067757fe5b01541015156106885780925061068c565b8091505b61063f565b8460018360ff166080811015156106a457fe5b01541015156106b5578193506106e8565b8460018460ff166080811015156106c857fe5b01541015156106d9578293506106e8565b600015156106e357fe5b600093505b505050919050565b6000806000849150600090508360ff168583029060020a900491506f03442c4e6074a82f1797f72ac00000008202810190508360ff168583029060020a900491506f0116b96f757c380fb287fd0e400000008202810190508360ff168583029060020a900491506e45ae5bdd5f0e03eca1ff43900000008202810190508360ff168583029060020a900491506e0defabf91302cd95b9ffda500000008202810190508360ff168583029060020a900491506e02529ca9832b22439efff9b80000008202810190508360ff168583029060020a900491506d54f1cf12bd04e516b6da880000008202810190508360ff168583029060020a900491506d0a9e39e257a09ca2d6db510000008202810190508360ff168583029060020a900491506d012e066e7b839fa050c3090000008202810190508360ff168583029060020a900491506c1e33d7d926c329a1ad1a8000008202810190508360ff168583029060020a900491506c02bee513bdb4a6b19b5f8000008202810190508360ff168583029060020a900491506b3a9316fa79b88eccf2a000008202810190508360ff168583029060020a900491506b048177ebe1fa8123752000008202810190508360ff168583029060020a900491506a5263fe90242dcbacf000008202810190508360ff168583029060020a900491506a057e22099c030d941000008202810190508360ff168583029060020a900491506957e22099c030d94100008202810190508360ff168583029060020a9004915069052b6b545699763100008202810190508360ff168583029060020a90049150684985f67696bf7480008202810190508360ff168583029060020a900491506803dea12ea99e4980008202810190508360ff168583029060020a900491506731880f2214b6e0008202810190508360ff168583029060020a9004915067025bcff56eb360008202810190508360ff168583029060020a90049150661b722e10ab10008202810190508360ff168583029060020a900491506601317c700770008202810190508360ff168583029060020a90049150650cba84aafa008202810190508360ff168583029060020a900491506482573a0a008202810190508360ff168583029060020a900491506405035ad9008202810190508360ff168583029060020a90049150632f881b008202810190508360ff168583029060020a900491506301b293408202810190508360ff168583029060020a90049150620efc408202810190508360ff168583029060020a90049150617fe08202810190508360ff168583029060020a900491506104208202810190508360ff168583029060020a9004915060218202810190508360ff168583029060020a9004915060018202810190508360ff1660019060020a02856f0688589cc0e9505e2f2fee558000000083811515610b0757fe5b0401019250505092915050565b6000806000809150610100841015610b4b575b6001841115610b46576001849060020a90049350600182019150610b27565b610b96565b608090505b60008160ff161115610b95578060ff1660019060020a0284101515610b82578060ff16849060020a9004935080821791505b60018160ff169060020a90049050610b50565b5b81925050509190505600a165627a7a723058207501a9228ec388b3708e760f343bfd7c95d7a8c6d714e48718559f2988d33ce00029",
  "source": "pragma solidity ^0.4.11;\nimport './Utils.sol';\nimport './interfaces/IBancorFormula.sol';\n\ncontract BancorFormula is IBancorFormula, Utils {\n    string public version = '0.3';\n\n    uint256 private constant ONE = 1;\n    uint32 private constant MAX_WEIGHT = 1000000;\n    uint8 private constant MIN_PRECISION = 32;\n    uint8 private constant MAX_PRECISION = 127;\n\n    /**\n        The values below depend on MAX_PRECISION. If you choose to change it:\n        Apply the same change in file 'PrintIntScalingFactors.py', run it and paste the results below.\n    */\n    uint256 private constant FIXED_1 = 0x080000000000000000000000000000000;\n    uint256 private constant FIXED_2 = 0x100000000000000000000000000000000;\n    uint256 private constant MAX_NUM = 0x1ffffffffffffffffffffffffffffffff;\n\n    /**\n        The values below depend on MAX_PRECISION. If you choose to change it:\n        Apply the same change in file 'PrintLn2ScalingFactors.py', run it and paste the results below.\n    */\n    uint256 private constant LN2_MANTISSA = 0x2c5c85fdf473de6af278ece600fcbda;\n    uint8   private constant LN2_EXPONENT = 122;\n\n    /**\n        The values below depend on MIN_PRECISION and MAX_PRECISION. If you choose to change either one of them:\n        Apply the same change in file 'PrintFunctionBancorFormula.py', run it and paste the results below.\n    */\n    uint256[128] private maxExpArray;\n\n    function BancorFormula() {\n    //  maxExpArray[  0] = 0x6bffffffffffffffffffffffffffffffff;\n    //  maxExpArray[  1] = 0x67ffffffffffffffffffffffffffffffff;\n    //  maxExpArray[  2] = 0x637fffffffffffffffffffffffffffffff;\n    //  maxExpArray[  3] = 0x5f6fffffffffffffffffffffffffffffff;\n    //  maxExpArray[  4] = 0x5b77ffffffffffffffffffffffffffffff;\n    //  maxExpArray[  5] = 0x57b3ffffffffffffffffffffffffffffff;\n    //  maxExpArray[  6] = 0x5419ffffffffffffffffffffffffffffff;\n    //  maxExpArray[  7] = 0x50a2ffffffffffffffffffffffffffffff;\n    //  maxExpArray[  8] = 0x4d517fffffffffffffffffffffffffffff;\n    //  maxExpArray[  9] = 0x4a233fffffffffffffffffffffffffffff;\n    //  maxExpArray[ 10] = 0x47165fffffffffffffffffffffffffffff;\n    //  maxExpArray[ 11] = 0x4429afffffffffffffffffffffffffffff;\n    //  maxExpArray[ 12] = 0x415bc7ffffffffffffffffffffffffffff;\n    //  maxExpArray[ 13] = 0x3eab73ffffffffffffffffffffffffffff;\n    //  maxExpArray[ 14] = 0x3c1771ffffffffffffffffffffffffffff;\n    //  maxExpArray[ 15] = 0x399e96ffffffffffffffffffffffffffff;\n    //  maxExpArray[ 16] = 0x373fc47fffffffffffffffffffffffffff;\n    //  maxExpArray[ 17] = 0x34f9e8ffffffffffffffffffffffffffff;\n    //  maxExpArray[ 18] = 0x32cbfd5fffffffffffffffffffffffffff;\n    //  maxExpArray[ 19] = 0x30b5057fffffffffffffffffffffffffff;\n    //  maxExpArray[ 20] = 0x2eb40f9fffffffffffffffffffffffffff;\n    //  maxExpArray[ 21] = 0x2cc8340fffffffffffffffffffffffffff;\n    //  maxExpArray[ 22] = 0x2af09481ffffffffffffffffffffffffff;\n    //  maxExpArray[ 23] = 0x292c5bddffffffffffffffffffffffffff;\n    //  maxExpArray[ 24] = 0x277abdcdffffffffffffffffffffffffff;\n    //  maxExpArray[ 25] = 0x25daf6657fffffffffffffffffffffffff;\n    //  maxExpArray[ 26] = 0x244c49c65fffffffffffffffffffffffff;\n    //  maxExpArray[ 27] = 0x22ce03cd5fffffffffffffffffffffffff;\n    //  maxExpArray[ 28] = 0x215f77c047ffffffffffffffffffffffff;\n    //  maxExpArray[ 29] = 0x1fffffffffffffffffffffffffffffffff;\n    //  maxExpArray[ 30] = 0x1eaefdbdabffffffffffffffffffffffff;\n    //  maxExpArray[ 31] = 0x1d6bd8b2ebffffffffffffffffffffffff;\n        maxExpArray[ 32] = 0x1c35fedd14ffffffffffffffffffffffff;\n        maxExpArray[ 33] = 0x1b0ce43b323fffffffffffffffffffffff;\n        maxExpArray[ 34] = 0x19f0028ec1ffffffffffffffffffffffff;\n        maxExpArray[ 35] = 0x18ded91f0e7fffffffffffffffffffffff;\n        maxExpArray[ 36] = 0x17d8ec7f0417ffffffffffffffffffffff;\n        maxExpArray[ 37] = 0x16ddc6556cdbffffffffffffffffffffff;\n        maxExpArray[ 38] = 0x15ecf52776a1ffffffffffffffffffffff;\n        maxExpArray[ 39] = 0x15060c256cb2ffffffffffffffffffffff;\n        maxExpArray[ 40] = 0x1428a2f98d72ffffffffffffffffffffff;\n        maxExpArray[ 41] = 0x13545598e5c23fffffffffffffffffffff;\n        maxExpArray[ 42] = 0x1288c4161ce1dfffffffffffffffffffff;\n        maxExpArray[ 43] = 0x11c592761c666fffffffffffffffffffff;\n        maxExpArray[ 44] = 0x110a688680a757ffffffffffffffffffff;\n        maxExpArray[ 45] = 0x1056f1b5bedf77ffffffffffffffffffff;\n        maxExpArray[ 46] = 0x0faadceceeff8bffffffffffffffffffff;\n        maxExpArray[ 47] = 0x0f05dc6b27edadffffffffffffffffffff;\n        maxExpArray[ 48] = 0x0e67a5a25da4107fffffffffffffffffff;\n        maxExpArray[ 49] = 0x0dcff115b14eedffffffffffffffffffff;\n        maxExpArray[ 50] = 0x0d3e7a392431239fffffffffffffffffff;\n        maxExpArray[ 51] = 0x0cb2ff529eb71e4fffffffffffffffffff;\n        maxExpArray[ 52] = 0x0c2d415c3db974afffffffffffffffffff;\n        maxExpArray[ 53] = 0x0bad03e7d883f69bffffffffffffffffff;\n        maxExpArray[ 54] = 0x0b320d03b2c343d5ffffffffffffffffff;\n        maxExpArray[ 55] = 0x0abc25204e02828dffffffffffffffffff;\n        maxExpArray[ 56] = 0x0a4b16f74ee4bb207fffffffffffffffff;\n        maxExpArray[ 57] = 0x09deaf736ac1f569ffffffffffffffffff;\n        maxExpArray[ 58] = 0x0976bd9952c7aa957fffffffffffffffff;\n        maxExpArray[ 59] = 0x09131271922eaa606fffffffffffffffff;\n        maxExpArray[ 60] = 0x08b380f3558668c46fffffffffffffffff;\n        maxExpArray[ 61] = 0x0857ddf0117efa215bffffffffffffffff;\n        maxExpArray[ 62] = 0x07ffffffffffffffffffffffffffffffff;\n        maxExpArray[ 63] = 0x07abbf6f6abb9d087fffffffffffffffff;\n        maxExpArray[ 64] = 0x075af62cbac95f7dfa7fffffffffffffff;\n        maxExpArray[ 65] = 0x070d7fb7452e187ac13fffffffffffffff;\n        maxExpArray[ 66] = 0x06c3390ecc8af379295fffffffffffffff;\n        maxExpArray[ 67] = 0x067c00a3b07ffc01fd6fffffffffffffff;\n        maxExpArray[ 68] = 0x0637b647c39cbb9d3d27ffffffffffffff;\n        maxExpArray[ 69] = 0x05f63b1fc104dbd39587ffffffffffffff;\n        maxExpArray[ 70] = 0x05b771955b36e12f7235ffffffffffffff;\n        maxExpArray[ 71] = 0x057b3d49dda84556d6f6ffffffffffffff;\n        maxExpArray[ 72] = 0x054183095b2c8ececf30ffffffffffffff;\n        maxExpArray[ 73] = 0x050a28be635ca2b888f77fffffffffffff;\n        maxExpArray[ 74] = 0x04d5156639708c9db33c3fffffffffffff;\n        maxExpArray[ 75] = 0x04a23105873875bd52dfdfffffffffffff;\n        maxExpArray[ 76] = 0x0471649d87199aa990756fffffffffffff;\n        maxExpArray[ 77] = 0x04429a21a029d4c1457cfbffffffffffff;\n        maxExpArray[ 78] = 0x0415bc6d6fb7dd71af2cb3ffffffffffff;\n        maxExpArray[ 79] = 0x03eab73b3bbfe282243ce1ffffffffffff;\n        maxExpArray[ 80] = 0x03c1771ac9fb6b4c18e229ffffffffffff;\n        maxExpArray[ 81] = 0x0399e96897690418f785257fffffffffff;\n        maxExpArray[ 82] = 0x0373fc456c53bb779bf0ea9fffffffffff;\n        maxExpArray[ 83] = 0x034f9e8e490c48e67e6ab8bfffffffffff;\n        maxExpArray[ 84] = 0x032cbfd4a7adc790560b3337ffffffffff;\n        maxExpArray[ 85] = 0x030b50570f6e5d2acca94613ffffffffff;\n        maxExpArray[ 86] = 0x02eb40f9f620fda6b56c2861ffffffffff;\n        maxExpArray[ 87] = 0x02cc8340ecb0d0f520a6af58ffffffffff;\n        maxExpArray[ 88] = 0x02af09481380a0a35cf1ba02ffffffffff;\n        maxExpArray[ 89] = 0x0292c5bdd3b92ec810287b1b3fffffffff;\n        maxExpArray[ 90] = 0x0277abdcdab07d5a77ac6d6b9fffffffff;\n        maxExpArray[ 91] = 0x025daf6654b1eaa55fd64df5efffffffff;\n        maxExpArray[ 92] = 0x0244c49c648baa98192dce88b7ffffffff;\n        maxExpArray[ 93] = 0x022ce03cd5619a311b2471268bffffffff;\n        maxExpArray[ 94] = 0x0215f77c045fbe885654a44a0fffffffff;\n        maxExpArray[ 95] = 0x01ffffffffffffffffffffffffffffffff;\n        maxExpArray[ 96] = 0x01eaefdbdaaee7421fc4d3ede5ffffffff;\n        maxExpArray[ 97] = 0x01d6bd8b2eb257df7e8ca57b09bfffffff;\n        maxExpArray[ 98] = 0x01c35fedd14b861eb0443f7f133fffffff;\n        maxExpArray[ 99] = 0x01b0ce43b322bcde4a56e8ada5afffffff;\n        maxExpArray[100] = 0x019f0028ec1fff007f5a195a39dfffffff;\n        maxExpArray[101] = 0x018ded91f0e72ee74f49b15ba527ffffff;\n        maxExpArray[102] = 0x017d8ec7f04136f4e5615fd41a63ffffff;\n        maxExpArray[103] = 0x016ddc6556cdb84bdc8d12d22e6fffffff;\n        maxExpArray[104] = 0x015ecf52776a1155b5bd8395814f7fffff;\n        maxExpArray[105] = 0x015060c256cb23b3b3cc3754cf40ffffff;\n        maxExpArray[106] = 0x01428a2f98d728ae223ddab715be3fffff;\n        maxExpArray[107] = 0x013545598e5c23276ccf0ede68034fffff;\n        maxExpArray[108] = 0x01288c4161ce1d6f54b7f61081194fffff;\n        maxExpArray[109] = 0x011c592761c666aa641d5a01a40f17ffff;\n        maxExpArray[110] = 0x0110a688680a7530515f3e6e6cfdcdffff;\n        maxExpArray[111] = 0x01056f1b5bedf75c6bcb2ce8aed428ffff;\n        maxExpArray[112] = 0x00faadceceeff8a0890f3875f008277fff;\n        maxExpArray[113] = 0x00f05dc6b27edad306388a600f6ba0bfff;\n        maxExpArray[114] = 0x00e67a5a25da41063de1495d5b18cdbfff;\n        maxExpArray[115] = 0x00dcff115b14eedde6fc3aa5353f2e4fff;\n        maxExpArray[116] = 0x00d3e7a3924312399f9aae2e0f868f8fff;\n        maxExpArray[117] = 0x00cb2ff529eb71e41582cccd5a1ee26fff;\n        maxExpArray[118] = 0x00c2d415c3db974ab32a51840c0b67edff;\n        maxExpArray[119] = 0x00bad03e7d883f69ad5b0a186184e06bff;\n        maxExpArray[120] = 0x00b320d03b2c343d4829abd6075f0cc5ff;\n        maxExpArray[121] = 0x00abc25204e02828d73c6e80bcdb1a95bf;\n        maxExpArray[122] = 0x00a4b16f74ee4bb2040a1ec6c15fbbf2df;\n        maxExpArray[123] = 0x009deaf736ac1f569deb1b5ae3f36c130f;\n        maxExpArray[124] = 0x00976bd9952c7aa957f5937d790ef65037;\n        maxExpArray[125] = 0x009131271922eaa6064b73a22d0bd4f2bf;\n        maxExpArray[126] = 0x008b380f3558668c46c91c49a2f8e967b9;\n        maxExpArray[127] = 0x00857ddf0117efa215952912839f6473e6;\n    }\n\n    /**\n        @dev given a token supply, connector balance, weight and a deposit amount (in the connector token),\n        calculates the return for a given conversion (in the main token)\n\n        Formula:\n        Return = _supply * ((1 + _depositAmount / _connectorBalance) ^ (_connectorWeight / 1000000) - 1)\n\n        @param _supply              token total supply\n        @param _connectorBalance    total connector balance\n        @param _connectorWeight     connector weight, represented in ppm, 1-1000000\n        @param _depositAmount       deposit amount, in connector token\n\n        @return purchase return amount\n    */\n    function calculatePurchaseReturn(uint256 _supply, uint256 _connectorBalance, uint32 _connectorWeight, uint256 _depositAmount) public constant returns (uint256) {\n        // validate input\n        require(_supply > 0 && _connectorBalance > 0 && _connectorWeight > 0 && _connectorWeight <= MAX_WEIGHT);\n\n        // special case for 0 deposit amount\n        if (_depositAmount == 0)\n            return 0;\n\n        // special case if the weight = 100%\n        if (_connectorWeight == MAX_WEIGHT)\n            return safeMul(_supply, _depositAmount) / _connectorBalance;\n\n        uint256 result;\n        uint8 precision;\n        uint256 baseN = safeAdd(_depositAmount, _connectorBalance);\n        (result, precision) = power(baseN, _connectorBalance, _connectorWeight, MAX_WEIGHT);\n        uint256 temp = safeMul(_supply, result) >> precision;\n        return temp - _supply;\n     }\n\n    /**\n        @dev given a token supply, connector balance, weight and a sell amount (in the main token),\n        calculates the return for a given conversion (in the connector token)\n\n        Formula:\n        Return = _connectorBalance * (1 - (1 - _sellAmount / _supply) ^ (1 / (_connectorWeight / 1000000)))\n\n        @param _supply              token total supply\n        @param _connectorBalance    total connector\n        @param _connectorWeight     constant connector Weight, represented in ppm, 1-1000000\n        @param _sellAmount          sell amount, in the token itself\n\n        @return sale return amount\n    */\n    function calculateSaleReturn(uint256 _supply, uint256 _connectorBalance, uint32 _connectorWeight, uint256 _sellAmount) public constant returns (uint256) {\n        // validate input\n        require(_supply > 0 && _connectorBalance > 0 && _connectorWeight > 0 && _connectorWeight <= MAX_WEIGHT && _sellAmount <= _supply);\n\n        // special case for 0 sell amount\n        if (_sellAmount == 0)\n            return 0;\n\n        // special case for selling the entire supply\n        if (_sellAmount == _supply)\n            return _connectorBalance;\n\n        // special case if the weight = 100%\n        if (_connectorWeight == MAX_WEIGHT)\n            return safeMul(_connectorBalance, _sellAmount) / _supply;\n\n        uint256 result;\n        uint8 precision;\n        uint256 baseD = _supply - _sellAmount;\n        (result, precision) = power(_supply, baseD, MAX_WEIGHT, _connectorWeight);\n        uint256 temp1 = safeMul(_connectorBalance, result);\n        uint256 temp2 = _connectorBalance << precision;\n        return (temp1 - temp2) / result;\n    }\n\n    /**\n        General Description:\n            Determine a value of precision.\n            Calculate an integer approximation of (_baseN / _baseD) ^ (_expN / _expD) * 2 ^ precision.\n            Return the result along with the precision used.\n\n        Detailed Description:\n            Instead of calculating \"base ^ exp\", we calculate \"e ^ (ln(base) * exp)\".\n            The value of \"ln(base)\" is represented with an integer slightly smaller than \"ln(base) * 2 ^ precision\".\n            The larger \"precision\" is, the more accurately this value represents the real value.\n            However, the larger \"precision\" is, the more bits are required in order to store this value.\n            And the exponentiation function, which takes \"x\" and calculates \"e ^ x\", is limited to a maximum exponent (maximum value of \"x\").\n            This maximum exponent depends on the \"precision\" used, and it is given by \"maxExpArray[precision] >> (MAX_PRECISION - precision)\".\n            Hence we need to determine the highest precision which can be used for the given input, before calling the exponentiation function.\n            This allows us to compute \"base ^ exp\" with maximum accuracy and without exceeding 256 bits in any of the intermediate computations.\n    */\n    function power(uint256 _baseN, uint256 _baseD, uint32 _expN, uint32 _expD) internal constant returns (uint256, uint8) {\n        uint256 lnBaseTimesExp = ln(_baseN, _baseD) * _expN / _expD;\n        uint8 precision = findPositionInMaxExpArray(lnBaseTimesExp);\n        return (fixedExp(lnBaseTimesExp >> (MAX_PRECISION - precision), precision), precision);\n    }\n\n    /**\n        Return floor(ln(numerator / denominator) * 2 ^ MAX_PRECISION), where:\n        - The numerator   is a value between 1 and 2 ^ (256 - MAX_PRECISION) - 1\n        - The denominator is a value between 1 and 2 ^ (256 - MAX_PRECISION) - 1\n        - The output      is a value between 0 and floor(ln(2 ^ (256 - MAX_PRECISION) - 1) * 2 ^ MAX_PRECISION)\n        This functions assumes that the numerator is larger than or equal to the denominator, because the output would be negative otherwise.\n    */\n    function ln(uint256 _numerator, uint256 _denominator) internal constant returns (uint256) {\n        assert(_numerator <= MAX_NUM);\n\n        uint256 res = 0;\n        uint256 x = _numerator * FIXED_1 / _denominator;\n\n        // If x >= 2, then we compute the integer part of log2(x), which is larger than 0.\n        if (x >= FIXED_2) {\n            uint8 count = floorLog2(x / FIXED_1);\n            x >>= count; // now x < 2\n            res = count * FIXED_1;\n        }\n\n        // If x > 1, then we compute the fraction part of log2(x), which is larger than 0.\n        if (x > FIXED_1) {\n            for (uint8 i = MAX_PRECISION; i > 0; --i) {\n                x = (x * x) / FIXED_1; // now 1 < x < 4\n                if (x >= FIXED_2) {\n                    x >>= 1; // now 1 < x < 2\n                    res += ONE << (i - 1);\n                }\n            }\n        }\n\n        return (res * LN2_MANTISSA) >> LN2_EXPONENT;\n    }\n\n    /**\n        Compute the largest integer smaller than or equal to the binary logarithm of the input.\n    */\n    function floorLog2(uint256 _n) internal constant returns (uint8) {\n        uint8 res = 0;\n\n        if (_n < 256) {\n            // At most 8 iterations\n            while (_n > 1) {\n                _n >>= 1;\n                res += 1;\n            }\n        }\n        else {\n            // Exactly 8 iterations\n            for (uint8 s = 128; s > 0; s >>= 1) {\n                if (_n >= (ONE << s)) {\n                    _n >>= s;\n                    res |= s;\n                }\n            }\n        }\n\n        return res;\n    }\n\n    /**\n        The global \"maxExpArray\" is sorted in descending order, and therefore the following statements are equivalent:\n        - This function finds the position of [the smallest value in \"maxExpArray\" larger than or equal to \"x\"]\n        - This function finds the highest position of [a value in \"maxExpArray\" larger than or equal to \"x\"]\n    */\n    function findPositionInMaxExpArray(uint256 _x) internal constant returns (uint8) {\n        uint8 lo = MIN_PRECISION;\n        uint8 hi = MAX_PRECISION;\n\n        while (lo + 1 < hi) {\n            uint8 mid = (lo + hi) / 2;\n            if (maxExpArray[mid] >= _x)\n                lo = mid;\n            else\n                hi = mid;\n        }\n\n        if (maxExpArray[hi] >= _x)\n            return hi;\n        if (maxExpArray[lo] >= _x)\n            return lo;\n\n        assert(false);\n        return 0;\n    }\n\n    /**\n        This function can be auto-generated by the script 'PrintFunctionFixedExp.py'.\n        It approximates \"e ^ x\" via maclaurin summation: \"(x^0)/0! + (x^1)/1! + ... + (x^n)/n!\".\n        It returns \"e ^ (x / 2 ^ precision) * 2 ^ precision\", that is, the result is upshifted for accuracy.\n        The global \"maxExpArray\" maps each \"precision\" to \"((maximumExponent + 1) << (MAX_PRECISION - precision)) - 1\".\n        The maximum permitted value for \"x\" is therefore given by \"maxExpArray[precision] >> (MAX_PRECISION - precision)\".\n    */\n    function fixedExp(uint256 _x, uint8 _precision) internal constant returns (uint256) {\n        uint256 xi = _x;\n        uint256 res = 0;\n\n        xi = (xi * _x) >> _precision;\n        res += xi * 0x03442c4e6074a82f1797f72ac0000000; // add x^2 * (33! / 2!)\n        xi = (xi * _x) >> _precision;\n        res += xi * 0x0116b96f757c380fb287fd0e40000000; // add x^3 * (33! / 3!)\n        xi = (xi * _x) >> _precision;\n        res += xi * 0x0045ae5bdd5f0e03eca1ff4390000000; // add x^4 * (33! / 4!)\n        xi = (xi * _x) >> _precision;\n        res += xi * 0x000defabf91302cd95b9ffda50000000; // add x^5 * (33! / 5!)\n        xi = (xi * _x) >> _precision;\n        res += xi * 0x0002529ca9832b22439efff9b8000000; // add x^6 * (33! / 6!)\n        xi = (xi * _x) >> _precision;\n        res += xi * 0x000054f1cf12bd04e516b6da88000000; // add x^7 * (33! / 7!)\n        xi = (xi * _x) >> _precision;\n        res += xi * 0x00000a9e39e257a09ca2d6db51000000; // add x^8 * (33! / 8!)\n        xi = (xi * _x) >> _precision;\n        res += xi * 0x0000012e066e7b839fa050c309000000; // add x^9 * (33! / 9!)\n        xi = (xi * _x) >> _precision;\n        res += xi * 0x0000001e33d7d926c329a1ad1a800000; // add x^10 * (33! / 10!)\n        xi = (xi * _x) >> _precision;\n        res += xi * 0x00000002bee513bdb4a6b19b5f800000; // add x^11 * (33! / 11!)\n        xi = (xi * _x) >> _precision;\n        res += xi * 0x000000003a9316fa79b88eccf2a00000; // add x^12 * (33! / 12!)\n        xi = (xi * _x) >> _precision;\n        res += xi * 0x00000000048177ebe1fa812375200000; // add x^13 * (33! / 13!)\n        xi = (xi * _x) >> _precision;\n        res += xi * 0x00000000005263fe90242dcbacf00000; // add x^14 * (33! / 14!)\n        xi = (xi * _x) >> _precision;\n        res += xi * 0x0000000000057e22099c030d94100000; // add x^15 * (33! / 15!)\n        xi = (xi * _x) >> _precision;\n        res += xi * 0x00000000000057e22099c030d9410000; // add x^16 * (33! / 16!)\n        xi = (xi * _x) >> _precision;\n        res += xi * 0x000000000000052b6b54569976310000; // add x^17 * (33! / 17!)\n        xi = (xi * _x) >> _precision;\n        res += xi * 0x000000000000004985f67696bf748000; // add x^18 * (33! / 18!)\n        xi = (xi * _x) >> _precision;\n        res += xi * 0x0000000000000003dea12ea99e498000; // add x^19 * (33! / 19!)\n        xi = (xi * _x) >> _precision;\n        res += xi * 0x000000000000000031880f2214b6e000; // add x^20 * (33! / 20!)\n        xi = (xi * _x) >> _precision;\n        res += xi * 0x0000000000000000025bcff56eb36000; // add x^21 * (33! / 21!)\n        xi = (xi * _x) >> _precision;\n        res += xi * 0x0000000000000000001b722e10ab1000; // add x^22 * (33! / 22!)\n        xi = (xi * _x) >> _precision;\n        res += xi * 0x00000000000000000001317c70077000; // add x^23 * (33! / 23!)\n        xi = (xi * _x) >> _precision;\n        res += xi * 0x000000000000000000000cba84aafa00; // add x^24 * (33! / 24!)\n        xi = (xi * _x) >> _precision;\n        res += xi * 0x000000000000000000000082573a0a00; // add x^25 * (33! / 25!)\n        xi = (xi * _x) >> _precision;\n        res += xi * 0x000000000000000000000005035ad900; // add x^26 * (33! / 26!)\n        xi = (xi * _x) >> _precision;\n        res += xi * 0x0000000000000000000000002f881b00; // add x^27 * (33! / 27!)\n        xi = (xi * _x) >> _precision;\n        res += xi * 0x00000000000000000000000001b29340; // add x^28 * (33! / 28!)\n        xi = (xi * _x) >> _precision;\n        res += xi * 0x000000000000000000000000000efc40; // add x^29 * (33! / 29!)\n        xi = (xi * _x) >> _precision;\n        res += xi * 0x00000000000000000000000000007fe0; // add x^30 * (33! / 30!)\n        xi = (xi * _x) >> _precision;\n        res += xi * 0x00000000000000000000000000000420; // add x^31 * (33! / 31!)\n        xi = (xi * _x) >> _precision;\n        res += xi * 0x00000000000000000000000000000021; // add x^32 * (33! / 32!)\n        xi = (xi * _x) >> _precision;\n        res += xi * 0x00000000000000000000000000000001; // add x^33 * (33! / 33!)\n\n        return res / 0x688589cc0e9505e2f2fee5580000000 + _x + (ONE << _precision); // divide by 33! and then add x^1 / 1! + x^0 / 0!\n    }\n}\n",
  "sourcePath": "C:\\Users\\Diel\\Desktop\\MetaToro\\Genun Wallet\\Genun Contracts\\solidity\\contracts\\BancorFormula.sol",
  "compiler": {
    "name": "solc",
    "version": "0.4.18+commit.9cf6e910.Emscripten.clang"
  },
  "schemaVersion": "1.0.1",
  "updatedAt": "2018-01-10T17:47:28.206Z"
}