{
  "contractName": "IBancorConverterExtensions",
  "abi": [
    {
      "constant": true,
      "inputs": [],
      "name": "formula",
      "outputs": [
        {
          "name": "",
          "type": "address"
        }
      ],
      "payable": false,
      "stateMutability": "view",
      "type": "function"
    },
    {
      "constant": true,
      "inputs": [],
      "name": "gasPriceLimit",
      "outputs": [
        {
          "name": "",
          "type": "address"
        }
      ],
      "payable": false,
      "stateMutability": "view",
      "type": "function"
    },
    {
      "constant": true,
      "inputs": [],
      "name": "quickConverter",
      "outputs": [
        {
          "name": "",
          "type": "address"
        }
      ],
      "payable": false,
      "stateMutability": "view",
      "type": "function"
    }
  ],
  "bytecode": "0x6060604052341561000f57600080fd5b6101968061001e6000396000f300606060405260043610610057576000357c0100000000000000000000000000000000000000000000000000000000900463ffffffff1680634b75f54f1461005c578063961a929c146100b1578063c31e054714610106575b600080fd5b341561006757600080fd5b61006f61015b565b604051808273ffffffffffffffffffffffffffffffffffffffff1673ffffffffffffffffffffffffffffffffffffffff16815260200191505060405180910390f35b34156100bc57600080fd5b6100c4610160565b604051808273ffffffffffffffffffffffffffffffffffffffff1673ffffffffffffffffffffffffffffffffffffffff16815260200191505060405180910390f35b341561011157600080fd5b610119610165565b604051808273ffffffffffffffffffffffffffffffffffffffff1673ffffffffffffffffffffffffffffffffffffffff16815260200191505060405180910390f35b600090565b600090565b6000905600a165627a7a7230582037104ff9bc6fe79b1fade3b144267c0616f52d9fc54f90e511cdbeaf7d8873b40029",
  "source": "pragma solidity ^0.4.11;\nimport './IBancorFormula.sol';\nimport './IBancorGasPriceLimit.sol';\nimport './IBancorQuickConverter.sol';\n\n/*\n    Bancor Converter Extensions interface\n*/\ncontract IBancorConverterExtensions {\n    function formula() public constant returns (IBancorFormula) {}\n    function gasPriceLimit() public constant returns (IBancorGasPriceLimit) {}\n    function quickConverter() public constant returns (IBancorQuickConverter) {}\n}\n",
  "sourcePath": "C:\\Users\\Diel\\Desktop\\MetaToro\\Genun Wallet\\Genun Contracts\\solidity\\contracts\\interfaces\\IBancorConverterExtensions.sol",
  "compiler": {
    "name": "solc",
    "version": "0.4.18+commit.9cf6e910.Emscripten.clang"
  },
  "schemaVersion": "1.0.1",
  "updatedAt": "2018-01-10T12:34:07.802Z"
}