{
  "contractName": "IBancorGasPriceLimit",
  "abi": [
    {
      "constant": true,
      "inputs": [],
      "name": "gasPrice",
      "outputs": [
        {
          "name": "",
          "type": "uint256"
        }
      ],
      "payable": false,
      "stateMutability": "view",
      "type": "function"
    }
  ],
  "bytecode": "0x60606040523415600e57600080fd5b609b8061001c6000396000f300606060405260043610603f576000357c0100000000000000000000000000000000000000000000000000000000900463ffffffff168063fe173b97146044575b600080fd5b3415604e57600080fd5b6054606a565b6040518082815260200191505060405180910390f35b6000905600a165627a7a723058206ae53af473162227902b1374fbb8dc767f602a86da7867926def9d6ee8531ab80029",
  "source": "pragma solidity ^0.4.11;\n\n/*\n    Bancor Gas Price Limit interface\n*/\ncontract IBancorGasPriceLimit {\n    function gasPrice() public constant returns (uint256) {}\n}\n",
  "sourcePath": "C:\\Users\\Diel\\Desktop\\MetaToro\\Genun Wallet\\Genun Contracts\\solidity\\contracts\\interfaces\\IBancorGasPriceLimit.sol",
  "compiler": {
    "name": "solc",
    "version": "0.4.18+commit.9cf6e910.Emscripten.clang"
  },
  "schemaVersion": "1.0.1",
  "updatedAt": "2018-01-10T12:34:07.803Z"
}