{
  "contractName": "SmartTokenController",
  "abi": [
    {
      "constant": false,
      "inputs": [
        {
          "name": "_newOwner",
          "type": "address"
        }
      ],
      "name": "transferTokenOwnership",
      "outputs": [],
      "payable": false,
      "stateMutability": "nonpayable",
      "type": "function"
    },
    {
      "constant": false,
      "inputs": [],
      "name": "acceptTokenOwnership",
      "outputs": [],
      "payable": false,
      "stateMutability": "nonpayable",
      "type": "function"
    },
    {
      "constant": false,
      "inputs": [
        {
          "name": "_token",
          "type": "address"
        },
        {
          "name": "_to",
          "type": "address"
        },
        {
          "name": "_amount",
          "type": "uint256"
        }
      ],
      "name": "withdrawFromToken",
      "outputs": [],
      "payable": false,
      "stateMutability": "nonpayable",
      "type": "function"
    },
    {
      "constant": false,
      "inputs": [
        {
          "name": "_token",
          "type": "address"
        },
        {
          "name": "_to",
          "type": "address"
        },
        {
          "name": "_amount",
          "type": "uint256"
        }
      ],
      "name": "withdrawTokens",
      "outputs": [],
      "payable": false,
      "stateMutability": "nonpayable",
      "type": "function"
    },
    {
      "constant": false,
      "inputs": [],
      "name": "acceptOwnership",
      "outputs": [],
      "payable": false,
      "stateMutability": "nonpayable",
      "type": "function"
    },
    {
      "constant": false,
      "inputs": [
        {
          "name": "_disable",
          "type": "bool"
        }
      ],
      "name": "disableTokenTransfers",
      "outputs": [],
      "payable": false,
      "stateMutability": "nonpayable",
      "type": "function"
    },
    {
      "constant": true,
      "inputs": [],
      "name": "owner",
      "outputs": [
        {
          "name": "",
          "type": "address"
        }
      ],
      "payable": false,
      "stateMutability": "view",
      "type": "function"
    },
    {
      "constant": true,
      "inputs": [],
      "name": "newOwner",
      "outputs": [
        {
          "name": "",
          "type": "address"
        }
      ],
      "payable": false,
      "stateMutability": "view",
      "type": "function"
    },
    {
      "constant": false,
      "inputs": [
        {
          "name": "_newOwner",
          "type": "address"
        }
      ],
      "name": "transferOwnership",
      "outputs": [],
      "payable": false,
      "stateMutability": "nonpayable",
      "type": "function"
    },
    {
      "constant": true,
      "inputs": [],
      "name": "token",
      "outputs": [
        {
          "name": "",
          "type": "address"
        }
      ],
      "payable": false,
      "stateMutability": "view",
      "type": "function"
    },
    {
      "inputs": [
        {
          "name": "_token",
          "type": "address"
        }
      ],
      "payable": false,
      "stateMutability": "nonpayable",
      "type": "constructor"
    },
    {
      "anonymous": false,
      "inputs": [
        {
          "indexed": false,
          "name": "_prevOwner",
          "type": "address"
        },
        {
          "indexed": false,
          "name": "_newOwner",
          "type": "address"
        }
      ],
      "name": "OwnerUpdate",
      "type": "event"
    }
  ],
  "bytecode": "0x6060604052341561000f57600080fd5b604051602080610dc283398101604052808051906020019091905050336000806101000a81548173ffffffffffffffffffffffffffffffffffffffff021916908373ffffffffffffffffffffffffffffffffffffffff1602179055508060008173ffffffffffffffffffffffffffffffffffffffff161415151561009257600080fd5b81600260006101000a81548173ffffffffffffffffffffffffffffffffffffffff021916908373ffffffffffffffffffffffffffffffffffffffff1602179055505050610cde806100e46000396000f3006060604052600436106100a4576000357c0100000000000000000000000000000000000000000000000000000000900463ffffffff16806321e6b53d146100a957806338a5e016146100e257806341a5b33d146100f75780635e35359e1461015857806379ba5097146101b957806385d5e631146101ce5780638da5cb5b146101f3578063d4ee1d9014610248578063f2fde38b1461029d578063fc0c546a146102d6575b600080fd5b34156100b457600080fd5b6100e0600480803573ffffffffffffffffffffffffffffffffffffffff1690602001909190505061032b565b005b34156100ed57600080fd5b6100f5610456565b005b341561010257600080fd5b610156600480803573ffffffffffffffffffffffffffffffffffffffff1690602001909190803573ffffffffffffffffffffffffffffffffffffffff16906020019091908035906020019091905050610549565b005b341561016357600080fd5b6101b7600480803573ffffffffffffffffffffffffffffffffffffffff1690602001909190803573ffffffffffffffffffffffffffffffffffffffff169060200190919080359060200190919050506106b2565b005b34156101c457600080fd5b6101cc61086a565b005b34156101d957600080fd5b6101f160048080351515906020019091905050610a46565b005b34156101fe57600080fd5b610206610b49565b604051808273ffffffffffffffffffffffffffffffffffffffff1673ffffffffffffffffffffffffffffffffffffffff16815260200191505060405180910390f35b341561025357600080fd5b61025b610b6e565b604051808273ffffffffffffffffffffffffffffffffffffffff1673ffffffffffffffffffffffffffffffffffffffff16815260200191505060405180910390f35b34156102a857600080fd5b6102d4600480803573ffffffffffffffffffffffffffffffffffffffff16906020019091905050610b94565b005b34156102e157600080fd5b6102e9610c8c565b604051808273ffffffffffffffffffffffffffffffffffffffff1673ffffffffffffffffffffffffffffffffffffffff16815260200191505060405180910390f35b6000809054906101000a900473ffffffffffffffffffffffffffffffffffffffff1673ffffffffffffffffffffffffffffffffffffffff163373ffffffffffffffffffffffffffffffffffffffff1614151561038357fe5b600260009054906101000a900473ffffffffffffffffffffffffffffffffffffffff1673ffffffffffffffffffffffffffffffffffffffff1663f2fde38b826040518263ffffffff167c0100000000000000000000000000000000000000000000000000000000028152600401808273ffffffffffffffffffffffffffffffffffffffff1673ffffffffffffffffffffffffffffffffffffffff168152602001915050600060405180830381600087803b151561043f57600080fd5b6102c65a03f1151561045057600080fd5b50505050565b6000809054906101000a900473ffffffffffffffffffffffffffffffffffffffff1673ffffffffffffffffffffffffffffffffffffffff163373ffffffffffffffffffffffffffffffffffffffff161415156104ae57fe5b600260009054906101000a900473ffffffffffffffffffffffffffffffffffffffff1673ffffffffffffffffffffffffffffffffffffffff166379ba50976040518163ffffffff167c0100000000000000000000000000000000000000000000000000000000028152600401600060405180830381600087803b151561053357600080fd5b6102c65a03f1151561054457600080fd5b505050565b6000809054906101000a900473ffffffffffffffffffffffffffffffffffffffff1673ffffffffffffffffffffffffffffffffffffffff163373ffffffffffffffffffffffffffffffffffffffff161415156105a157fe5b600260009054906101000a900473ffffffffffffffffffffffffffffffffffffffff1673ffffffffffffffffffffffffffffffffffffffff16635e35359e8484846040518463ffffffff167c0100000000000000000000000000000000000000000000000000000000028152600401808473ffffffffffffffffffffffffffffffffffffffff1673ffffffffffffffffffffffffffffffffffffffff1681526020018373ffffffffffffffffffffffffffffffffffffffff1673ffffffffffffffffffffffffffffffffffffffff1681526020018281526020019350505050600060405180830381600087803b151561069957600080fd5b6102c65a03f115156106aa57600080fd5b505050505050565b6000809054906101000a900473ffffffffffffffffffffffffffffffffffffffff1673ffffffffffffffffffffffffffffffffffffffff163373ffffffffffffffffffffffffffffffffffffffff1614151561070a57fe5b8260008173ffffffffffffffffffffffffffffffffffffffff161415151561073157600080fd5b8260008173ffffffffffffffffffffffffffffffffffffffff161415151561075857600080fd5b833073ffffffffffffffffffffffffffffffffffffffff168173ffffffffffffffffffffffffffffffffffffffff161415151561079457600080fd5b8573ffffffffffffffffffffffffffffffffffffffff1663a9059cbb86866000604051602001526040518363ffffffff167c0100000000000000000000000000000000000000000000000000000000028152600401808373ffffffffffffffffffffffffffffffffffffffff1673ffffffffffffffffffffffffffffffffffffffff16815260200182815260200192505050602060405180830381600087803b151561083f57600080fd5b6102c65a03f1151561085057600080fd5b50505060405180519050151561086257fe5b505050505050565b600160009054906101000a900473ffffffffffffffffffffffffffffffffffffffff1673ffffffffffffffffffffffffffffffffffffffff163373ffffffffffffffffffffffffffffffffffffffff161415156108c657600080fd5b7f343765429aea5a34b3ff6a3785a98a5abb2597aca87bfbb58632c173d585373a6000809054906101000a900473ffffffffffffffffffffffffffffffffffffffff16600160009054906101000a900473ffffffffffffffffffffffffffffffffffffffff16604051808373ffffffffffffffffffffffffffffffffffffffff1673ffffffffffffffffffffffffffffffffffffffff1681526020018273ffffffffffffffffffffffffffffffffffffffff1673ffffffffffffffffffffffffffffffffffffffff1681526020019250505060405180910390a1600160009054906101000a900473ffffffffffffffffffffffffffffffffffffffff166000806101000a81548173ffffffffffffffffffffffffffffffffffffffff021916908373ffffffffffffffffffffffffffffffffffffffff1602179055506000600160006101000a81548173ffffffffffffffffffffffffffffffffffffffff021916908373ffffffffffffffffffffffffffffffffffffffff160217905550565b6000809054906101000a900473ffffffffffffffffffffffffffffffffffffffff1673ffffffffffffffffffffffffffffffffffffffff163373ffffffffffffffffffffffffffffffffffffffff16141515610a9e57fe5b600260009054906101000a900473ffffffffffffffffffffffffffffffffffffffff1673ffffffffffffffffffffffffffffffffffffffff16631608f18f826040518263ffffffff167c01000000000000000000000000000000000000000000000000000000000281526004018082151515158152602001915050600060405180830381600087803b1515610b3257600080fd5b6102c65a03f11515610b4357600080fd5b50505050565b6000809054906101000a900473ffffffffffffffffffffffffffffffffffffffff1681565b600160009054906101000a900473ffffffffffffffffffffffffffffffffffffffff1681565b6000809054906101000a900473ffffffffffffffffffffffffffffffffffffffff1673ffffffffffffffffffffffffffffffffffffffff163373ffffffffffffffffffffffffffffffffffffffff16141515610bec57fe5b6000809054906101000a900473ffffffffffffffffffffffffffffffffffffffff1673ffffffffffffffffffffffffffffffffffffffff168173ffffffffffffffffffffffffffffffffffffffff1614151515610c4857600080fd5b80600160006101000a81548173ffffffffffffffffffffffffffffffffffffffff021916908373ffffffffffffffffffffffffffffffffffffffff16021790555050565b600260009054906101000a900473ffffffffffffffffffffffffffffffffffffffff16815600a165627a7a723058205f0236a90d91bf48fef04857baa6d5a308eee61290324cea0a36dabfb28560280029",
  "source": "pragma solidity ^0.4.11;\nimport './TokenHolder.sol';\nimport './interfaces/ISmartToken.sol';\n\n/*\n    The smart token controller is an upgradable part of the smart token that allows\n    more functionality as well as fixes for bugs/exploits.\n    Once it accepts ownership of the token, it becomes the token's sole controller\n    that can execute any of its functions.\n\n    To upgrade the controller, ownership must be transferred to a new controller, along with\n    any relevant data.\n\n    The smart token must be set on construction and cannot be changed afterwards.\n    Wrappers are provided (as opposed to a single 'execute' function) for each of the token's functions, for easier access.\n\n    Note that the controller can transfer token ownership to a new controller that\n    doesn't allow executing any function on the token, for a trustless solution.\n    Doing that will also remove the owner's ability to upgrade the controller.\n*/\ncontract SmartTokenController is TokenHolder {\n    ISmartToken public token;   // smart token\n\n    /**\n        @dev constructor\n    */\n    function SmartTokenController(ISmartToken _token)\n        validAddress(_token)\n    {\n        token = _token;\n    }\n\n    // ensures that the controller is the token's owner\n    modifier active() {\n        assert(token.owner() == address(this));\n        _;\n    }\n\n    // ensures that the controller is not the token's owner\n    modifier inactive() {\n        assert(token.owner() != address(this));\n        _;\n    }\n\n    /**\n        @dev allows transferring the token ownership\n        the new owner still need to accept the transfer\n        can only be called by the contract owner\n\n        @param _newOwner    new token owner\n    */\n    function transferTokenOwnership(address _newOwner) public ownerOnly {\n        token.transferOwnership(_newOwner);\n    }\n\n    /**\n        @dev used by a new owner to accept a token ownership transfer\n        can only be called by the contract owner\n    */\n    function acceptTokenOwnership() public ownerOnly {\n        token.acceptOwnership();\n    }\n\n    /**\n        @dev disables/enables token transfers\n        can only be called by the contract owner\n\n        @param _disable    true to disable transfers, false to enable them\n    */\n    function disableTokenTransfers(bool _disable) public ownerOnly {\n        token.disableTransfers(_disable);\n    }\n\n    /**\n        @dev withdraws tokens held by the token and sends them to an account\n        can only be called by the owner\n\n        @param _token   ERC20 token contract address\n        @param _to      account to receive the new amount\n        @param _amount  amount to withdraw\n    */\n    function withdrawFromToken(IERC20Token _token, address _to, uint256 _amount) public ownerOnly {\n        ITokenHolder(token).withdrawTokens(_token, _to, _amount);\n    }\n}\n",
  "sourcePath": "C:\\Users\\Diel\\Desktop\\MetaToro\\Genun Wallet\\Genun Contracts\\solidity\\contracts\\SmartTokenController.sol",
  "compiler": {
    "name": "solc",
    "version": "0.4.18+commit.9cf6e910.Emscripten.clang"
  },
  "schemaVersion": "1.0.1",
  "updatedAt": "2018-01-10T17:47:28.145Z"
}