{
  "contractName": "TestCrowdsaleController",
  "abi": [
    {
      "constant": true,
      "inputs": [],
      "name": "BTCS_ETHER_CAP",
      "outputs": [
        {
          "name": "",
          "type": "uint256"
        }
      ],
      "payable": false,
      "stateMutability": "view",
      "type": "function"
    },
    {
      "constant": true,
      "inputs": [],
      "name": "TOKEN_PRICE_D",
      "outputs": [
        {
          "name": "",
          "type": "uint256"
        }
      ],
      "payable": false,
      "stateMutability": "view",
      "type": "function"
    },
    {
      "constant": false,
      "inputs": [],
      "name": "contributeETH",
      "outputs": [
        {
          "name": "amount",
          "type": "uint256"
        }
      ],
      "payable": true,
      "stateMutability": "payable",
      "type": "function"
    },
    {
      "constant": true,
      "inputs": [],
      "name": "DURATION",
      "outputs": [
        {
          "name": "",
          "type": "uint256"
        }
      ],
      "payable": false,
      "stateMutability": "view",
      "type": "function"
    },
    {
      "constant": true,
      "inputs": [
        {
          "name": "_contribution",
          "type": "uint256"
        }
      ],
      "name": "computeReturn",
      "outputs": [
        {
          "name": "",
          "type": "uint256"
        }
      ],
      "payable": false,
      "stateMutability": "view",
      "type": "function"
    },
    {
      "constant": false,
      "inputs": [
        {
          "name": "_newOwner",
          "type": "address"
        }
      ],
      "name": "transferTokenOwnership",
      "outputs": [],
      "payable": false,
      "stateMutability": "nonpayable",
      "type": "function"
    },
    {
      "constant": true,
      "inputs": [],
      "name": "endTime",
      "outputs": [
        {
          "name": "",
          "type": "uint256"
        }
      ],
      "payable": false,
      "stateMutability": "view",
      "type": "function"
    },
    {
      "constant": true,
      "inputs": [],
      "name": "totalEtherCap",
      "outputs": [
        {
          "name": "",
          "type": "uint256"
        }
      ],
      "payable": false,
      "stateMutability": "view",
      "type": "function"
    },
    {
      "constant": false,
      "inputs": [],
      "name": "acceptTokenOwnership",
      "outputs": [],
      "payable": false,
      "stateMutability": "nonpayable",
      "type": "function"
    },
    {
      "constant": true,
      "inputs": [],
      "name": "beneficiary",
      "outputs": [
        {
          "name": "",
          "type": "address"
        }
      ],
      "payable": false,
      "stateMutability": "view",
      "type": "function"
    },
    {
      "constant": false,
      "inputs": [
        {
          "name": "_token",
          "type": "address"
        },
        {
          "name": "_to",
          "type": "address"
        },
        {
          "name": "_amount",
          "type": "uint256"
        }
      ],
      "name": "withdrawFromToken",
      "outputs": [],
      "payable": false,
      "stateMutability": "nonpayable",
      "type": "function"
    },
    {
      "constant": true,
      "inputs": [],
      "name": "TOKEN_PRICE_N",
      "outputs": [
        {
          "name": "",
          "type": "uint256"
        }
      ],
      "payable": false,
      "stateMutability": "view",
      "type": "function"
    },
    {
      "constant": true,
      "inputs": [],
      "name": "version",
      "outputs": [
        {
          "name": "",
          "type": "string"
        }
      ],
      "payable": false,
      "stateMutability": "view",
      "type": "function"
    },
    {
      "constant": false,
      "inputs": [
        {
          "name": "_token",
          "type": "address"
        },
        {
          "name": "_to",
          "type": "address"
        },
        {
          "name": "_amount",
          "type": "uint256"
        }
      ],
      "name": "withdrawTokens",
      "outputs": [],
      "payable": false,
      "stateMutability": "nonpayable",
      "type": "function"
    },
    {
      "constant": true,
      "inputs": [],
      "name": "startTime",
      "outputs": [
        {
          "name": "",
          "type": "uint256"
        }
      ],
      "payable": false,
      "stateMutability": "view",
      "type": "function"
    },
    {
      "constant": false,
      "inputs": [],
      "name": "acceptOwnership",
      "outputs": [],
      "payable": false,
      "stateMutability": "nonpayable",
      "type": "function"
    },
    {
      "constant": false,
      "inputs": [
        {
          "name": "_disable",
          "type": "bool"
        }
      ],
      "name": "disableTokenTransfers",
      "outputs": [],
      "payable": false,
      "stateMutability": "nonpayable",
      "type": "function"
    },
    {
      "constant": true,
      "inputs": [],
      "name": "owner",
      "outputs": [
        {
          "name": "",
          "type": "address"
        }
      ],
      "payable": false,
      "stateMutability": "view",
      "type": "function"
    },
    {
      "constant": true,
      "inputs": [],
      "name": "realEtherCapHash",
      "outputs": [
        {
          "name": "",
          "type": "bytes32"
        }
      ],
      "payable": false,
      "stateMutability": "view",
      "type": "function"
    },
    {
      "constant": false,
      "inputs": [
        {
          "name": "_cap",
          "type": "uint256"
        },
        {
          "name": "_key",
          "type": "uint256"
        }
      ],
      "name": "enableRealCap",
      "outputs": [],
      "payable": false,
      "stateMutability": "nonpayable",
      "type": "function"
    },
    {
      "constant": false,
      "inputs": [],
      "name": "contributeBTCs",
      "outputs": [
        {
          "name": "amount",
          "type": "uint256"
        }
      ],
      "payable": true,
      "stateMutability": "payable",
      "type": "function"
    },
    {
      "constant": true,
      "inputs": [],
      "name": "totalEtherContributed",
      "outputs": [
        {
          "name": "",
          "type": "uint256"
        }
      ],
      "payable": false,
      "stateMutability": "view",
      "type": "function"
    },
    {
      "constant": true,
      "inputs": [],
      "name": "btcs",
      "outputs": [
        {
          "name": "",
          "type": "address"
        }
      ],
      "payable": false,
      "stateMutability": "view",
      "type": "function"
    },
    {
      "constant": true,
      "inputs": [],
      "name": "newOwner",
      "outputs": [
        {
          "name": "",
          "type": "address"
        }
      ],
      "payable": false,
      "stateMutability": "view",
      "type": "function"
    },
    {
      "constant": true,
      "inputs": [
        {
          "name": "_cap",
          "type": "uint256"
        },
        {
          "name": "_key",
          "type": "uint256"
        }
      ],
      "name": "computeRealCap",
      "outputs": [
        {
          "name": "",
          "type": "bytes32"
        }
      ],
      "payable": false,
      "stateMutability": "view",
      "type": "function"
    },
    {
      "constant": true,
      "inputs": [],
      "name": "MAX_GAS_PRICE",
      "outputs": [
        {
          "name": "",
          "type": "uint256"
        }
      ],
      "payable": false,
      "stateMutability": "view",
      "type": "function"
    },
    {
      "constant": false,
      "inputs": [
        {
          "name": "_newOwner",
          "type": "address"
        }
      ],
      "name": "transferOwnership",
      "outputs": [],
      "payable": false,
      "stateMutability": "nonpayable",
      "type": "function"
    },
    {
      "constant": true,
      "inputs": [],
      "name": "token",
      "outputs": [
        {
          "name": "",
          "type": "address"
        }
      ],
      "payable": false,
      "stateMutability": "view",
      "type": "function"
    },
    {
      "inputs": [
        {
          "name": "_token",
          "type": "address"
        },
        {
          "name": "_startTime",
          "type": "uint256"
        },
        {
          "name": "_beneficiary",
          "type": "address"
        },
        {
          "name": "_btcs",
          "type": "address"
        },
        {
          "name": "_realEtherCapHash",
          "type": "bytes32"
        },
        {
          "name": "_startTimeOverride",
          "type": "uint256"
        }
      ],
      "payable": false,
      "stateMutability": "nonpayable",
      "type": "constructor"
    },
    {
      "payable": true,
      "stateMutability": "payable",
      "type": "fallback"
    },
    {
      "anonymous": false,
      "inputs": [
        {
          "indexed": true,
          "name": "_contributor",
          "type": "address"
        },
        {
          "indexed": false,
          "name": "_amount",
          "type": "uint256"
        },
        {
          "indexed": false,
          "name": "_return",
          "type": "uint256"
        }
      ],
      "name": "Contribution",
      "type": "event"
    },
    {
      "anonymous": false,
      "inputs": [
        {
          "indexed": false,
          "name": "_prevOwner",
          "type": "address"
        },
        {
          "indexed": false,
          "name": "_newOwner",
          "type": "address"
        }
      ],
      "name": "OwnerUpdate",
      "type": "event"
    }
  ],
  "bytecode": "0x60606040526040805190810160405280600381526020017f302e310000000000000000000000000000000000000000000000000000000000815250600390805190602001906200005192919062000338565b506000600455600060055569d3c21bcecceda100000060065560006007556000600960006101000a81548173ffffffffffffffffffffffffffffffffffffffff021916908373ffffffffffffffffffffffffffffffffffffffff1602179055506000600a60006101000a81548173ffffffffffffffffffffffffffffffffffffffff021916908373ffffffffffffffffffffffffffffffffffffffff1602179055503415620000ff57600080fd5b60405160c08062001d4583398101604052808051906020019091908051906020019091908051906020019091908051906020019091908051906020019091908051906020019091905050858585858584336000806101000a81548173ffffffffffffffffffffffffffffffffffffffff021916908373ffffffffffffffffffffffffffffffffffffffff1602179055508060008173ffffffffffffffffffffffffffffffffffffffff1614151515620001b757600080fd5b81600260006101000a81548173ffffffffffffffffffffffffffffffffffffffff021916908373ffffffffffffffffffffffffffffffffffffffff16021790555050508260008173ffffffffffffffffffffffffffffffffffffffff16141515156200022257600080fd5b8260008173ffffffffffffffffffffffffffffffffffffffff16141515156200024a57600080fd5b8580421015156200025757fe5b83600190046000811115156200026c57600080fd5b87600481905550621275006004540160058190555086600960006101000a81548173ffffffffffffffffffffffffffffffffffffffff021916908373ffffffffffffffffffffffffffffffffffffffff16021790555085600a60006101000a81548173ffffffffffffffffffffffffffffffffffffffff021916908373ffffffffffffffffffffffffffffffffffffffff1602179055508460088160001916905550505050505050505050806004819055506212750060045401600581905550505050505050620003e7565b828054600181600116156101000203166002900490600052602060002090601f016020900481019282601f106200037b57805160ff1916838001178555620003ac565b82800160010185558215620003ac579182015b82811115620003ab5782518255916020019190600101906200038e565b5b509050620003bb9190620003bf565b5090565b620003e491905b80821115620003e0576000816000905550600101620003c6565b5090565b90565b61194e80620003f76000396000f30060606040526004361061016a576000357c0100000000000000000000000000000000000000000000000000000000900463ffffffff16806301d1c7fd146101755780630d2806ad1461019e578063175323a8146101c75780631be05289146101e55780631fc3a5191461020e57806321e6b53d146102455780633197cbb61461027e57806334971dd6146102a757806338a5e016146102d057806338af3eed146102e557806341a5b33d1461033a57806345cfad3e1461039b57806354fd4d50146103c45780635e35359e1461045257806378e97925146104b357806379ba5097146104dc57806385d5e631146104f15780638da5cb5b14610516578063aa4bdd3b1461056b578063ad03abc51461059c578063b3cffc6e146105c8578063b591fc69146105e6578063bb6322441461060f578063d4ee1d9014610664578063e2119c80146106b9578063e3bbb4f114610701578063f2fde38b1461072a578063fc0c546a14610763575b6101726107b8565b50005b341561018057600080fd5b6101886107e6565b6040518082815260200191505060405180910390f35b34156101a957600080fd5b6101b16107f4565b6040518082815260200191505060405180910390f35b6101cf6107b8565b6040518082815260200191505060405180910390f35b34156101f057600080fd5b6101f86107f9565b6040518082815260200191505060405180910390f35b341561021957600080fd5b61022f6004808035906020019091905050610800565b6040518082815260200191505060405180910390f35b341561025057600080fd5b61027c600480803573ffffffffffffffffffffffffffffffffffffffff16906020019091905050610820565b005b341561028957600080fd5b61029161094b565b6040518082815260200191505060405180910390f35b34156102b257600080fd5b6102ba610951565b6040518082815260200191505060405180910390f35b34156102db57600080fd5b6102e3610957565b005b34156102f057600080fd5b6102f8610a4a565b604051808273ffffffffffffffffffffffffffffffffffffffff1673ffffffffffffffffffffffffffffffffffffffff16815260200191505060405180910390f35b341561034557600080fd5b610399600480803573ffffffffffffffffffffffffffffffffffffffff1690602001909190803573ffffffffffffffffffffffffffffffffffffffff16906020019091908035906020019091905050610a70565b005b34156103a657600080fd5b6103ae610bd9565b6040518082815260200191505060405180910390f35b34156103cf57600080fd5b6103d7610bde565b6040518080602001828103825283818151815260200191508051906020019080838360005b838110156104175780820151818401526020810190506103fc565b50505050905090810190601f1680156104445780820380516001836020036101000a031916815260200191505b509250505060405180910390f35b341561045d57600080fd5b6104b1600480803573ffffffffffffffffffffffffffffffffffffffff1690602001909190803573ffffffffffffffffffffffffffffffffffffffff16906020019091908035906020019091905050610c7c565b005b34156104be57600080fd5b6104c6610e34565b6040518082815260200191505060405180910390f35b34156104e757600080fd5b6104ef610e3a565b005b34156104fc57600080fd5b61051460048080351515906020019091905050611016565b005b341561052157600080fd5b610529611119565b604051808273ffffffffffffffffffffffffffffffffffffffff1673ffffffffffffffffffffffffffffffffffffffff16815260200191505060405180910390f35b341561057657600080fd5b61057e61113e565b60405180826000191660001916815260200191505060405180910390f35b34156105a757600080fd5b6105c66004808035906020019091908035906020019091905050611144565b005b6105d06112da565b6040518082815260200191505060405180910390f35b34156105f157600080fd5b6105f9611374565b6040518082815260200191505060405180910390f35b341561061a57600080fd5b61062261137a565b604051808273ffffffffffffffffffffffffffffffffffffffff1673ffffffffffffffffffffffffffffffffffffffff16815260200191505060405180910390f35b341561066f57600080fd5b6106776113a0565b604051808273ffffffffffffffffffffffffffffffffffffffff1673ffffffffffffffffffffffffffffffffffffffff16815260200191505060405180910390f35b34156106c457600080fd5b6106e360048080359060200190919080359060200190919050506113c6565b60405180826000191660001916815260200191505060405180910390f35b341561070c57600080fd5b6107146113ee565b6040518082815260200191505060405180910390f35b341561073557600080fd5b610761600480803573ffffffffffffffffffffffffffffffffffffffff169060200190919050506113f7565b005b341561076e57600080fd5b6107766114ef565b604051808273ffffffffffffffffffffffffffffffffffffffff1673ffffffffffffffffffffffffffffffffffffffff16815260200191505060405180910390f35b60006004546005548142101580156107cf57508042105b15156107d757fe5b6107df611515565b9250505090565b690a968163f0a57b40000081565b606481565b6212750081565b6000600161080f8360646118d1565b81151561081857fe5b049050919050565b6000809054906101000a900473ffffffffffffffffffffffffffffffffffffffff1673ffffffffffffffffffffffffffffffffffffffff163373ffffffffffffffffffffffffffffffffffffffff1614151561087857fe5b600260009054906101000a900473ffffffffffffffffffffffffffffffffffffffff1673ffffffffffffffffffffffffffffffffffffffff1663f2fde38b826040518263ffffffff167c0100000000000000000000000000000000000000000000000000000000028152600401808273ffffffffffffffffffffffffffffffffffffffff1673ffffffffffffffffffffffffffffffffffffffff168152602001915050600060405180830381600087803b151561093457600080fd5b6102c65a03f1151561094557600080fd5b50505050565b60055481565b60065481565b6000809054906101000a900473ffffffffffffffffffffffffffffffffffffffff1673ffffffffffffffffffffffffffffffffffffffff163373ffffffffffffffffffffffffffffffffffffffff161415156109af57fe5b600260009054906101000a900473ffffffffffffffffffffffffffffffffffffffff1673ffffffffffffffffffffffffffffffffffffffff166379ba50976040518163ffffffff167c0100000000000000000000000000000000000000000000000000000000028152600401600060405180830381600087803b1515610a3457600080fd5b6102c65a03f11515610a4557600080fd5b505050565b600960009054906101000a900473ffffffffffffffffffffffffffffffffffffffff1681565b6000809054906101000a900473ffffffffffffffffffffffffffffffffffffffff1673ffffffffffffffffffffffffffffffffffffffff163373ffffffffffffffffffffffffffffffffffffffff16141515610ac857fe5b600260009054906101000a900473ffffffffffffffffffffffffffffffffffffffff1673ffffffffffffffffffffffffffffffffffffffff16635e35359e8484846040518463ffffffff167c0100000000000000000000000000000000000000000000000000000000028152600401808473ffffffffffffffffffffffffffffffffffffffff1673ffffffffffffffffffffffffffffffffffffffff1681526020018373ffffffffffffffffffffffffffffffffffffffff1673ffffffffffffffffffffffffffffffffffffffff1681526020018281526020019350505050600060405180830381600087803b1515610bc057600080fd5b6102c65a03f11515610bd157600080fd5b505050505050565b600181565b60038054600181600116156101000203166002900480601f016020809104026020016040519081016040528092919081815260200182805460018160011615610100020316600290048015610c745780601f10610c4957610100808354040283529160200191610c74565b820191906000526020600020905b815481529060010190602001808311610c5757829003601f168201915b505050505081565b6000809054906101000a900473ffffffffffffffffffffffffffffffffffffffff1673ffffffffffffffffffffffffffffffffffffffff163373ffffffffffffffffffffffffffffffffffffffff16141515610cd457fe5b8260008173ffffffffffffffffffffffffffffffffffffffff1614151515610cfb57600080fd5b8260008173ffffffffffffffffffffffffffffffffffffffff1614151515610d2257600080fd5b833073ffffffffffffffffffffffffffffffffffffffff168173ffffffffffffffffffffffffffffffffffffffff1614151515610d5e57600080fd5b8573ffffffffffffffffffffffffffffffffffffffff1663a9059cbb86866000604051602001526040518363ffffffff167c0100000000000000000000000000000000000000000000000000000000028152600401808373ffffffffffffffffffffffffffffffffffffffff1673ffffffffffffffffffffffffffffffffffffffff16815260200182815260200192505050602060405180830381600087803b1515610e0957600080fd5b6102c65a03f11515610e1a57600080fd5b505050604051805190501515610e2c57fe5b505050505050565b60045481565b600160009054906101000a900473ffffffffffffffffffffffffffffffffffffffff1673ffffffffffffffffffffffffffffffffffffffff163373ffffffffffffffffffffffffffffffffffffffff16141515610e9657600080fd5b7f343765429aea5a34b3ff6a3785a98a5abb2597aca87bfbb58632c173d585373a6000809054906101000a900473ffffffffffffffffffffffffffffffffffffffff16600160009054906101000a900473ffffffffffffffffffffffffffffffffffffffff16604051808373ffffffffffffffffffffffffffffffffffffffff1673ffffffffffffffffffffffffffffffffffffffff1681526020018273ffffffffffffffffffffffffffffffffffffffff1673ffffffffffffffffffffffffffffffffffffffff1681526020019250505060405180910390a1600160009054906101000a900473ffffffffffffffffffffffffffffffffffffffff166000806101000a81548173ffffffffffffffffffffffffffffffffffffffff021916908373ffffffffffffffffffffffffffffffffffffffff1602179055506000600160006101000a81548173ffffffffffffffffffffffffffffffffffffffff021916908373ffffffffffffffffffffffffffffffffffffffff160217905550565b6000809054906101000a900473ffffffffffffffffffffffffffffffffffffffff1673ffffffffffffffffffffffffffffffffffffffff163373ffffffffffffffffffffffffffffffffffffffff1614151561106e57fe5b600260009054906101000a900473ffffffffffffffffffffffffffffffffffffffff1673ffffffffffffffffffffffffffffffffffffffff16631608f18f826040518263ffffffff167c01000000000000000000000000000000000000000000000000000000000281526004018082151515158152602001915050600060405180830381600087803b151561110257600080fd5b6102c65a03f1151561111357600080fd5b50505050565b6000809054906101000a900473ffffffffffffffffffffffffffffffffffffffff1681565b60085481565b6000809054906101000a900473ffffffffffffffffffffffffffffffffffffffff1673ffffffffffffffffffffffffffffffffffffffff163373ffffffffffffffffffffffffffffffffffffffff1614151561119c57fe5b3073ffffffffffffffffffffffffffffffffffffffff16600260009054906101000a900473ffffffffffffffffffffffffffffffffffffffff1673ffffffffffffffffffffffffffffffffffffffff16638da5cb5b6000604051602001526040518163ffffffff167c0100000000000000000000000000000000000000000000000000000000028152600401602060405180830381600087803b151561124157600080fd5b6102c65a03f1151561125257600080fd5b5050506040518051905073ffffffffffffffffffffffffffffffffffffffff1614151561127b57fe5b60045460055481421015801561129057508042105b151561129857fe5b8383600854600019166112ab83836113c6565b600019161415156112bb57600080fd5b600654861015156112cb57600080fd5b85600681905550505050505050565b6000600a60009054906101000a900473ffffffffffffffffffffffffffffffffffffffff1673ffffffffffffffffffffffffffffffffffffffff163373ffffffffffffffffffffffffffffffffffffffff1614151561133557fe5b34690a968163f0a57b40000061134d60075483611904565b1115151561135757fe5b600454804210151561136557fe5b61136d611515565b9250505090565b60075481565b600a60009054906101000a900473ffffffffffffffffffffffffffffffffffffffff1681565b600160009054906101000a900473ffffffffffffffffffffffffffffffffffffffff1681565b6000828260405180838152602001828152602001925050506040518091039020905092915050565b640ba43b740081565b6000809054906101000a900473ffffffffffffffffffffffffffffffffffffffff1673ffffffffffffffffffffffffffffffffffffffff163373ffffffffffffffffffffffffffffffffffffffff1614151561144f57fe5b6000809054906101000a900473ffffffffffffffffffffffffffffffffffffffff1673ffffffffffffffffffffffffffffffffffffffff168173ffffffffffffffffffffffffffffffffffffffff16141515156114ab57600080fd5b80600160006101000a81548173ffffffffffffffffffffffffffffffffffffffff021916908373ffffffffffffffffffffffffffffffffffffffff16021790555050565b600260009054906101000a900473ffffffffffffffffffffffffffffffffffffffff1681565b6000803073ffffffffffffffffffffffffffffffffffffffff16600260009054906101000a900473ffffffffffffffffffffffffffffffffffffffff1673ffffffffffffffffffffffffffffffffffffffff16638da5cb5b6000604051602001526040518163ffffffff167c0100000000000000000000000000000000000000000000000000000000028152600401602060405180830381600087803b15156115bd57600080fd5b6102c65a03f115156115ce57600080fd5b5050506040518051905073ffffffffffffffffffffffffffffffffffffffff161415156115f757fe5b3460065461160760075483611904565b1115151561161157fe5b640ba43b74003a1115151561162257fe5b61162b34610800565b9150600960009054906101000a900473ffffffffffffffffffffffffffffffffffffffff1673ffffffffffffffffffffffffffffffffffffffff166108fc349081150290604051600060405180830381858888f19350505050151561168f57600080fd5b61169b60075434611904565b600781905550600260009054906101000a900473ffffffffffffffffffffffffffffffffffffffff1673ffffffffffffffffffffffffffffffffffffffff1663867904b433846040518363ffffffff167c0100000000000000000000000000000000000000000000000000000000028152600401808373ffffffffffffffffffffffffffffffffffffffff1673ffffffffffffffffffffffffffffffffffffffff16815260200182815260200192505050600060405180830381600087803b151561176557600080fd5b6102c65a03f1151561177657600080fd5b505050600260009054906101000a900473ffffffffffffffffffffffffffffffffffffffff1673ffffffffffffffffffffffffffffffffffffffff1663867904b4600960009054906101000a900473ffffffffffffffffffffffffffffffffffffffff16846040518363ffffffff167c0100000000000000000000000000000000000000000000000000000000028152600401808373ffffffffffffffffffffffffffffffffffffffff1673ffffffffffffffffffffffffffffffffffffffff16815260200182815260200192505050600060405180830381600087803b151561185f57600080fd5b6102c65a03f1151561187057600080fd5b5050503373ffffffffffffffffffffffffffffffffffffffff167f5f7675b09617d2c9fa4fd13058ee5877a9538f626b0308816736e83748a450403484604051808381526020018281526020019250505060405180910390a2819250505090565b600080828402905060008414806118f257508284828115156118ef57fe5b04145b15156118fa57fe5b8091505092915050565b600080828401905083811015151561191857fe5b80915050929150505600a165627a7a72305820e043ba4b4d6a2f1cb7215838862b2a2215cd49e26b75c1702c26fa75c07eaccc0029",
  "source": "pragma solidity ^0.4.11;\nimport '../CrowdsaleController.sol';\n\n/*\n    Test crowdsale controller with start time < now < end time\n*/\ncontract TestCrowdsaleController is CrowdsaleController {\n    function TestCrowdsaleController(\n        ISmartToken _token,\n        uint256 _startTime,\n        address _beneficiary,\n        address _btcs,\n        bytes32 _realEtherCapHash,\n        uint256 _startTimeOverride)\n        CrowdsaleController(_token, _startTime, _beneficiary, _btcs, _realEtherCapHash)\n    {\n        startTime = _startTimeOverride;\n        endTime = startTime + DURATION;\n    }\n}\n",
  "sourcePath": "C:\\Users\\Diel\\Desktop\\MetaToro\\Genun Wallet\\Genun Contracts\\solidity\\contracts\\helpers\\TestCrowdsaleController.sol",
  "compiler": {
    "name": "solc",
    "version": "0.4.18+commit.9cf6e910.Emscripten.clang"
  },
  "schemaVersion": "1.0.1",
  "updatedAt": "2018-01-10T12:34:07.794Z"
}