{
  "contractName": "TestBancorFormula",
  "abi": [
    {
      "constant": true,
      "inputs": [
        {
          "name": "_supply",
          "type": "uint256"
        },
        {
          "name": "_connectorBalance",
          "type": "uint256"
        },
        {
          "name": "_connectorWeight",
          "type": "uint32"
        },
        {
          "name": "_depositAmount",
          "type": "uint256"
        }
      ],
      "name": "calculatePurchaseReturn",
      "outputs": [
        {
          "name": "",
          "type": "uint256"
        }
      ],
      "payable": false,
      "stateMutability": "view",
      "type": "function"
    },
    {
      "constant": true,
      "inputs": [
        {
          "name": "_supply",
          "type": "uint256"
        },
        {
          "name": "_connectorBalance",
          "type": "uint256"
        },
        {
          "name": "_connectorWeight",
          "type": "uint32"
        },
        {
          "name": "_sellAmount",
          "type": "uint256"
        }
      ],
      "name": "calculateSaleReturn",
      "outputs": [
        {
          "name": "",
          "type": "uint256"
        }
      ],
      "payable": false,
      "stateMutability": "view",
      "type": "function"
    },
    {
      "constant": true,
      "inputs": [],
      "name": "version",
      "outputs": [
        {
          "name": "",
          "type": "string"
        }
      ],
      "payable": false,
      "stateMutability": "view",
      "type": "function"
    },
    {
      "constant": true,
      "inputs": [
        {
          "name": "_baseN",
          "type": "uint256"
        },
        {
          "name": "_baseD",
          "type": "uint256"
        },
        {
          "name": "_expN",
          "type": "uint32"
        },
        {
          "name": "_expD",
          "type": "uint32"
        }
      ],
      "name": "powerTest",
      "outputs": [
        {
          "name": "",
          "type": "uint256"
        },
        {
          "name": "",
          "type": "uint8"
        }
      ],
      "payable": false,
      "stateMutability": "view",
      "type": "function"
    },
    {
      "constant": true,
      "inputs": [
        {
          "name": "_x",
          "type": "uint256"
        }
      ],
      "name": "findPositionInMaxExpArrayTest",
      "outputs": [
        {
          "name": "",
          "type": "uint8"
        }
      ],
      "payable": false,
      "stateMutability": "view",
      "type": "function"
    },
    {
      "constant": true,
      "inputs": [
        {
          "name": "_x",
          "type": "uint256"
        },
        {
          "name": "_precision",
          "type": "uint8"
        }
      ],
      "name": "fixedExpTest",
      "outputs": [
        {
          "name": "",
          "type": "uint256"
        }
      ],
      "payable": false,
      "stateMutability": "view",
      "type": "function"
    },
    {
      "constant": true,
      "inputs": [
        {
          "name": "_n",
          "type": "uint256"
        }
      ],
      "name": "floorLog2Test",
      "outputs": [
        {
          "name": "",
          "type": "uint8"
        }
      ],
      "payable": false,
      "stateMutability": "view",
      "type": "function"
    },
    {
      "constant": true,
      "inputs": [
        {
          "name": "_numerator",
          "type": "uint256"
        },
        {
          "name": "_denominator",
          "type": "uint256"
        }
      ],
      "name": "lnTest",
      "outputs": [
        {
          "name": "",
          "type": "uint256"
        }
      ],
      "payable": false,
      "stateMutability": "view",
      "type": "function"
    },
    {
      "inputs": [],
      "payable": false,
      "stateMutability": "nonpayable",
      "type": "constructor"
    }
  ],
  "bytecode": "0x60606040526040805190810160405280600381526020017f302e330000000000000000000000000000000000000000000000000000000000815250600090805190602001906200005192919062000f54565b5034156200005e57600080fd5b701c35fedd14ffffffffffffffffffffffff600160206080811015156200008157fe5b0181905550701b0ce43b323fffffffffffffffffffffff60016021608081101515620000a957fe5b01819055507019f0028ec1ffffffffffffffffffffffff60016022608081101515620000d157fe5b01819055507018ded91f0e7fffffffffffffffffffffff60016023608081101515620000f957fe5b01819055507017d8ec7f0417ffffffffffffffffffffff600160246080811015156200012157fe5b01819055507016ddc6556cdbffffffffffffffffffffff600160256080811015156200014957fe5b01819055507015ecf52776a1ffffffffffffffffffffff600160266080811015156200017157fe5b01819055507015060c256cb2ffffffffffffffffffffff600160276080811015156200019957fe5b0181905550701428a2f98d72ffffffffffffffffffffff60016028608081101515620001c157fe5b01819055507013545598e5c23fffffffffffffffffffff60016029608081101515620001e957fe5b0181905550701288c4161ce1dfffffffffffffffffffff6001602a6080811015156200021157fe5b01819055507011c592761c666fffffffffffffffffffff6001602b6080811015156200023957fe5b018190555070110a688680a757ffffffffffffffffffff6001602c6080811015156200026157fe5b0181905550701056f1b5bedf77ffffffffffffffffffff6001602d6080811015156200028957fe5b0181905550700faadceceeff8bffffffffffffffffffff6001602e608081101515620002b157fe5b0181905550700f05dc6b27edadffffffffffffffffffff6001602f608081101515620002d957fe5b0181905550700e67a5a25da4107fffffffffffffffffff600160306080811015156200030157fe5b0181905550700dcff115b14eedffffffffffffffffffff600160316080811015156200032957fe5b0181905550700d3e7a392431239fffffffffffffffffff600160326080811015156200035157fe5b0181905550700cb2ff529eb71e4fffffffffffffffffff600160336080811015156200037957fe5b0181905550700c2d415c3db974afffffffffffffffffff60016034608081101515620003a157fe5b0181905550700bad03e7d883f69bffffffffffffffffff60016035608081101515620003c957fe5b0181905550700b320d03b2c343d5ffffffffffffffffff60016036608081101515620003f157fe5b0181905550700abc25204e02828dffffffffffffffffff600160376080811015156200041957fe5b0181905550700a4b16f74ee4bb207fffffffffffffffff600160386080811015156200044157fe5b01819055507009deaf736ac1f569ffffffffffffffffff600160396080811015156200046957fe5b0181905550700976bd9952c7aa957fffffffffffffffff6001603a6080811015156200049157fe5b01819055507009131271922eaa606fffffffffffffffff6001603b608081101515620004b957fe5b01819055507008b380f3558668c46fffffffffffffffff6001603c608081101515620004e157fe5b0181905550700857ddf0117efa215bffffffffffffffff6001603d6080811015156200050957fe5b01819055507007ffffffffffffffffffffffffffffffff6001603e6080811015156200053157fe5b01819055507007abbf6f6abb9d087fffffffffffffffff6001603f6080811015156200055957fe5b018190555070075af62cbac95f7dfa7fffffffffffffff600160406080811015156200058157fe5b018190555070070d7fb7452e187ac13fffffffffffffff60016041608081101515620005a957fe5b01819055507006c3390ecc8af379295fffffffffffffff60016042608081101515620005d157fe5b018190555070067c00a3b07ffc01fd6fffffffffffffff60016043608081101515620005f957fe5b0181905550700637b647c39cbb9d3d27ffffffffffffff600160446080811015156200062157fe5b01819055507005f63b1fc104dbd39587ffffffffffffff600160456080811015156200064957fe5b01819055507005b771955b36e12f7235ffffffffffffff600160466080811015156200067157fe5b018190555070057b3d49dda84556d6f6ffffffffffffff600160476080811015156200069957fe5b018190555070054183095b2c8ececf30ffffffffffffff60016048608081101515620006c157fe5b018190555070050a28be635ca2b888f77fffffffffffff60016049608081101515620006e957fe5b01819055507004d5156639708c9db33c3fffffffffffff6001604a6080811015156200071157fe5b01819055507004a23105873875bd52dfdfffffffffffff6001604b6080811015156200073957fe5b0181905550700471649d87199aa990756fffffffffffff6001604c6080811015156200076157fe5b01819055507004429a21a029d4c1457cfbffffffffffff6001604d6080811015156200078957fe5b0181905550700415bc6d6fb7dd71af2cb3ffffffffffff6001604e608081101515620007b157fe5b01819055507003eab73b3bbfe282243ce1ffffffffffff6001604f608081101515620007d957fe5b01819055507003c1771ac9fb6b4c18e229ffffffffffff600160506080811015156200080157fe5b0181905550700399e96897690418f785257fffffffffff600160516080811015156200082957fe5b0181905550700373fc456c53bb779bf0ea9fffffffffff600160526080811015156200085157fe5b018190555070034f9e8e490c48e67e6ab8bfffffffffff600160536080811015156200087957fe5b018190555070032cbfd4a7adc790560b3337ffffffffff60016054608081101515620008a157fe5b018190555070030b50570f6e5d2acca94613ffffffffff60016055608081101515620008c957fe5b01819055507002eb40f9f620fda6b56c2861ffffffffff60016056608081101515620008f157fe5b01819055507002cc8340ecb0d0f520a6af58ffffffffff600160576080811015156200091957fe5b01819055507002af09481380a0a35cf1ba02ffffffffff600160586080811015156200094157fe5b0181905550700292c5bdd3b92ec810287b1b3fffffffff600160596080811015156200096957fe5b0181905550700277abdcdab07d5a77ac6d6b9fffffffff6001605a6080811015156200099157fe5b018190555070025daf6654b1eaa55fd64df5efffffffff6001605b608081101515620009b957fe5b0181905550700244c49c648baa98192dce88b7ffffffff6001605c608081101515620009e157fe5b018190555070022ce03cd5619a311b2471268bffffffff6001605d60808110151562000a0957fe5b0181905550700215f77c045fbe885654a44a0fffffffff6001605e60808110151562000a3157fe5b01819055507001ffffffffffffffffffffffffffffffff6001605f60808110151562000a5957fe5b01819055507001eaefdbdaaee7421fc4d3ede5ffffffff6001606060808110151562000a8157fe5b01819055507001d6bd8b2eb257df7e8ca57b09bfffffff6001606160808110151562000aa957fe5b01819055507001c35fedd14b861eb0443f7f133fffffff6001606260808110151562000ad157fe5b01819055507001b0ce43b322bcde4a56e8ada5afffffff6001606360808110151562000af957fe5b018190555070019f0028ec1fff007f5a195a39dfffffff6001606460808110151562000b2157fe5b018190555070018ded91f0e72ee74f49b15ba527ffffff6001606560808110151562000b4957fe5b018190555070017d8ec7f04136f4e5615fd41a63ffffff6001606660808110151562000b7157fe5b018190555070016ddc6556cdb84bdc8d12d22e6fffffff6001606760808110151562000b9957fe5b018190555070015ecf52776a1155b5bd8395814f7fffff6001606860808110151562000bc157fe5b018190555070015060c256cb23b3b3cc3754cf40ffffff6001606960808110151562000be957fe5b01819055507001428a2f98d728ae223ddab715be3fffff6001606a60808110151562000c1157fe5b018190555070013545598e5c23276ccf0ede68034fffff6001606b60808110151562000c3957fe5b01819055507001288c4161ce1d6f54b7f61081194fffff6001606c60808110151562000c6157fe5b018190555070011c592761c666aa641d5a01a40f17ffff6001606d60808110151562000c8957fe5b0181905550700110a688680a7530515f3e6e6cfdcdffff6001606e60808110151562000cb157fe5b01819055507001056f1b5bedf75c6bcb2ce8aed428ffff6001606f60808110151562000cd957fe5b01819055506ffaadceceeff8a0890f3875f008277fff6001607060808110151562000d0057fe5b01819055506ff05dc6b27edad306388a600f6ba0bfff6001607160808110151562000d2757fe5b01819055506fe67a5a25da41063de1495d5b18cdbfff6001607260808110151562000d4e57fe5b01819055506fdcff115b14eedde6fc3aa5353f2e4fff6001607360808110151562000d7557fe5b01819055506fd3e7a3924312399f9aae2e0f868f8fff6001607460808110151562000d9c57fe5b01819055506fcb2ff529eb71e41582cccd5a1ee26fff6001607560808110151562000dc357fe5b01819055506fc2d415c3db974ab32a51840c0b67edff6001607660808110151562000dea57fe5b01819055506fbad03e7d883f69ad5b0a186184e06bff6001607760808110151562000e1157fe5b01819055506fb320d03b2c343d4829abd6075f0cc5ff6001607860808110151562000e3857fe5b01819055506fabc25204e02828d73c6e80bcdb1a95bf6001607960808110151562000e5f57fe5b01819055506fa4b16f74ee4bb2040a1ec6c15fbbf2df6001607a60808110151562000e8657fe5b01819055506f9deaf736ac1f569deb1b5ae3f36c130f6001607b60808110151562000ead57fe5b01819055506f976bd9952c7aa957f5937d790ef650376001607c60808110151562000ed457fe5b01819055506f9131271922eaa6064b73a22d0bd4f2bf6001607d60808110151562000efb57fe5b01819055506f8b380f3558668c46c91c49a2f8e967b96001607e60808110151562000f2257fe5b01819055506f857ddf0117efa215952912839f6473e66001607f60808110151562000f4957fe5b018190555062001003565b828054600181600116156101000203166002900490600052602060002090601f016020900481019282601f1062000f9757805160ff191683800117855562000fc8565b8280016001018555821562000fc8579182015b8281111562000fc757825182559160200191906001019062000faa565b5b50905062000fd7919062000fdb565b5090565b6200100091905b8082111562000ffc57600081600090555060010162000fe2565b5090565b90565b610dd380620010136000396000f30060606040526004361061008e576000357c0100000000000000000000000000000000000000000000000000000000900463ffffffff16806329a00e7c1461009357806349f9b0f7146100eb57806354fd4d50146101435780638c5ce82a146101d1578063a25a34b11461023c578063b3ed208114610279578063ce782e08146102bc578063dc06d8f8146102f9575b600080fd5b341561009e57600080fd5b6100d5600480803590602001909190803590602001909190803563ffffffff16906020019091908035906020019091905050610339565b6040518082815260200191505060405180910390f35b34156100f657600080fd5b61012d600480803590602001909190803590602001909190803563ffffffff16906020019091908035906020019091905050610418565b6040518082815260200191505060405180910390f35b341561014e57600080fd5b61015661051c565b6040518080602001828103825283818151815260200191508051906020019080838360005b8381101561019657808201518184015260208101905061017b565b50505050905090810190601f1680156101c35780820380516001836020036101000a031916815260200191505b509250505060405180910390f35b34156101dc57600080fd5b610219600480803590602001909190803590602001909190803563ffffffff1690602001909190803563ffffffff169060200190919050506105ba565b604051808381526020018260ff1660ff1681526020019250505060405180910390f35b341561024757600080fd5b61025d60048080359060200190919050506105d6565b604051808260ff1660ff16815260200191505060405180910390f35b341561028457600080fd5b6102a6600480803590602001909190803560ff169060200190919050506105e8565b6040518082815260200191505060405180910390f35b34156102c757600080fd5b6102dd60048080359060200190919050506105fc565b604051808260ff1660ff16815260200191505060405180910390f35b341561030457600080fd5b610323600480803590602001909190803590602001909190505061060e565b6040518082815260200191505060405180910390f35b600080600080600080891180156103505750600088115b8015610362575060008763ffffffff16115b801561037d5750620f424063ffffffff168763ffffffff1611155b151561038857600080fd5b600086141561039a576000945061040c565b620f424063ffffffff168763ffffffff1614156103cd57876103bc8a88610622565b8115156103c557fe5b04945061040c565b6103d78689610655565b91506103e8828989620f4240610673565b80945081955050508260ff166103fe8a86610622565b9060020a9004905088810394505b50505050949350505050565b60008060008060008060008a1180156104315750600089115b8015610443575060008863ffffffff16115b801561045e5750620f424063ffffffff168863ffffffff1611155b801561046a5750898711155b151561047557600080fd5b6000871415610487576000955061050f565b898714156104975788955061050f565b620f424063ffffffff168863ffffffff1614156104ca57896104b98a89610622565b8115156104c257fe5b04955061050f565b868a0392506104de8a84620f42408b610673565b80955081965050506104f08986610622565b91508360ff16899060020a0290508481830381151561050b57fe5b0495505b5050505050949350505050565b60008054600181600116156101000203166002900480601f0160208091040260200160405190810160405280929190818152602001828054600181600116156101000203166002900480156105b25780601f10610587576101008083540402835291602001916105b2565b820191906000526020600020905b81548152906001019060200180831161059557829003601f168201915b505050505081565b6000806105c986868686610673565b9150915094509492505050565b60006105e1826106d0565b9050919050565b60006105f48383610790565b905092915050565b600061060782610bb4565b9050919050565b600061061a8383610c40565b905092915050565b60008082840290506000841480610643575082848281151561064057fe5b04145b151561064b57fe5b8091505092915050565b600080828401905083811015151561066957fe5b8091505092915050565b6000806000808463ffffffff168663ffffffff166106918a8a610c40565b0281151561069b57fe5b0491506106a7826106d0565b90506106c081607f0360ff16839060020a900482610790565b8193509350505094509492505050565b60008060008060209250607f91505b8160ff166001840160ff16101561073157600282840160ff1681151561070157fe5b0490508460018260ff1660808110151561071757fe5b01541015156107285780925061072c565b8091505b6106df565b8460018360ff1660808110151561074457fe5b015410151561075557819350610788565b8460018460ff1660808110151561076857fe5b015410151561077957829350610788565b6000151561078357fe5b600093505b505050919050565b6000806000849150600090508360ff168583029060020a900491506f03442c4e6074a82f1797f72ac00000008202810190508360ff168583029060020a900491506f0116b96f757c380fb287fd0e400000008202810190508360ff168583029060020a900491506e45ae5bdd5f0e03eca1ff43900000008202810190508360ff168583029060020a900491506e0defabf91302cd95b9ffda500000008202810190508360ff168583029060020a900491506e02529ca9832b22439efff9b80000008202810190508360ff168583029060020a900491506d54f1cf12bd04e516b6da880000008202810190508360ff168583029060020a900491506d0a9e39e257a09ca2d6db510000008202810190508360ff168583029060020a900491506d012e066e7b839fa050c3090000008202810190508360ff168583029060020a900491506c1e33d7d926c329a1ad1a8000008202810190508360ff168583029060020a900491506c02bee513bdb4a6b19b5f8000008202810190508360ff168583029060020a900491506b3a9316fa79b88eccf2a000008202810190508360ff168583029060020a900491506b048177ebe1fa8123752000008202810190508360ff168583029060020a900491506a5263fe90242dcbacf000008202810190508360ff168583029060020a900491506a057e22099c030d941000008202810190508360ff168583029060020a900491506957e22099c030d94100008202810190508360ff168583029060020a9004915069052b6b545699763100008202810190508360ff168583029060020a90049150684985f67696bf7480008202810190508360ff168583029060020a900491506803dea12ea99e4980008202810190508360ff168583029060020a900491506731880f2214b6e0008202810190508360ff168583029060020a9004915067025bcff56eb360008202810190508360ff168583029060020a90049150661b722e10ab10008202810190508360ff168583029060020a900491506601317c700770008202810190508360ff168583029060020a90049150650cba84aafa008202810190508360ff168583029060020a900491506482573a0a008202810190508360ff168583029060020a900491506405035ad9008202810190508360ff168583029060020a90049150632f881b008202810190508360ff168583029060020a900491506301b293408202810190508360ff168583029060020a90049150620efc408202810190508360ff168583029060020a90049150617fe08202810190508360ff168583029060020a900491506104208202810190508360ff168583029060020a9004915060218202810190508360ff168583029060020a9004915060018202810190508360ff1660019060020a02856f0688589cc0e9505e2f2fee558000000083811515610ba757fe5b0401019250505092915050565b6000806000809150610100841015610beb575b6001841115610be6576001849060020a90049350600182019150610bc7565b610c36565b608090505b60008160ff161115610c35578060ff1660019060020a0284101515610c22578060ff16849060020a9004935080821791505b60018160ff169060020a90049050610bf0565b5b8192505050919050565b60008060008060007001ffffffffffffffffffffffffffffffff8711151515610c6557fe5b60009350856f800000000000000000000000000000008802811515610c8657fe5b04925070010000000000000000000000000000000083101515610cef57610cc76f8000000000000000000000000000000084811515610cc157fe5b04610bb4565b91508160ff16839060020a900492506f800000000000000000000000000000008260ff160293505b6f80000000000000000000000000000000831115610d7d57607f90505b60008160ff161115610d7c576f80000000000000000000000000000000838402811515610d3557fe5b04925070010000000000000000000000000000000083101515610d70576001839060020a900492506001810360ff1660019060020a02840193505b80600190039050610d0c565b5b607a60ff166f02c5c85fdf473de6af278ece600fcbda85029060020a9004945050505050929150505600a165627a7a72305820c0afff186cdd0b504f3d55b073c96d62a191904d2bd666724e0286037ad9c8730029",
  "source": "pragma solidity ^0.4.11;\nimport '../BancorFormula.sol';\n\n/*\n    BancorFormula test helper that exposes some BancorFormula functions\n*/\ncontract TestBancorFormula is BancorFormula {\n    function TestBancorFormula() {\n    }\n\n    function powerTest(uint256 _baseN, uint256 _baseD, uint32 _expN, uint32 _expD) public constant returns (uint256, uint8) {\n        return super.power(_baseN, _baseD, _expN, _expD);\n    }\n\n    function lnTest(uint256 _numerator, uint256 _denominator) public constant returns (uint256) {\n        return super.ln(_numerator, _denominator);\n    }\n\n    function findPositionInMaxExpArrayTest(uint256 _x) public constant returns (uint8) {\n        return super.findPositionInMaxExpArray(_x);\n    }\n\n    function fixedExpTest(uint256 _x, uint8 _precision) public constant returns (uint256) {\n        return super.fixedExp(_x, _precision);\n    }\n\n    function floorLog2Test(uint256 _n) public constant returns (uint8) {\n        return super.floorLog2(_n);\n    }\n}\n",
  "sourcePath": "C:\\Users\\Diel\\Desktop\\MetaToro\\Genun Wallet\\Genun Contracts\\solidity\\contracts\\helpers\\TestBancorFormula.sol",
  "compiler": {
    "name": "solc",
    "version": "0.4.18+commit.9cf6e910.Emscripten.clang"
  },
  "schemaVersion": "1.0.1",
  "updatedAt": "2018-01-10T12:34:07.793Z"
}