{
  "contractName": "TokenHolder",
  "abi": [
    {
      "constant": false,
      "inputs": [
        {
          "name": "_token",
          "type": "address"
        },
        {
          "name": "_to",
          "type": "address"
        },
        {
          "name": "_amount",
          "type": "uint256"
        }
      ],
      "name": "withdrawTokens",
      "outputs": [],
      "payable": false,
      "stateMutability": "nonpayable",
      "type": "function"
    },
    {
      "constant": false,
      "inputs": [],
      "name": "acceptOwnership",
      "outputs": [],
      "payable": false,
      "stateMutability": "nonpayable",
      "type": "function"
    },
    {
      "constant": true,
      "inputs": [],
      "name": "owner",
      "outputs": [
        {
          "name": "",
          "type": "address"
        }
      ],
      "payable": false,
      "stateMutability": "view",
      "type": "function"
    },
    {
      "constant": true,
      "inputs": [],
      "name": "newOwner",
      "outputs": [
        {
          "name": "",
          "type": "address"
        }
      ],
      "payable": false,
      "stateMutability": "view",
      "type": "function"
    },
    {
      "constant": false,
      "inputs": [
        {
          "name": "_newOwner",
          "type": "address"
        }
      ],
      "name": "transferOwnership",
      "outputs": [],
      "payable": false,
      "stateMutability": "nonpayable",
      "type": "function"
    },
    {
      "inputs": [],
      "payable": false,
      "stateMutability": "nonpayable",
      "type": "constructor"
    },
    {
      "anonymous": false,
      "inputs": [
        {
          "indexed": false,
          "name": "_prevOwner",
          "type": "address"
        },
        {
          "indexed": false,
          "name": "_newOwner",
          "type": "address"
        }
      ],
      "name": "OwnerUpdate",
      "type": "event"
    }
  ],
  "bytecode": "0x6060604052341561000f57600080fd5b336000806101000a81548173ffffffffffffffffffffffffffffffffffffffff021916908373ffffffffffffffffffffffffffffffffffffffff1602179055506106ce8061005e6000396000f30060606040526004361061006d576000357c0100000000000000000000000000000000000000000000000000000000900463ffffffff1680635e35359e1461007257806379ba5097146100d35780638da5cb5b146100e8578063d4ee1d901461013d578063f2fde38b14610192575b600080fd5b341561007d57600080fd5b6100d1600480803573ffffffffffffffffffffffffffffffffffffffff1690602001909190803573ffffffffffffffffffffffffffffffffffffffff169060200190919080359060200190919050506101cb565b005b34156100de57600080fd5b6100e6610383565b005b34156100f357600080fd5b6100fb61055f565b604051808273ffffffffffffffffffffffffffffffffffffffff1673ffffffffffffffffffffffffffffffffffffffff16815260200191505060405180910390f35b341561014857600080fd5b610150610584565b604051808273ffffffffffffffffffffffffffffffffffffffff1673ffffffffffffffffffffffffffffffffffffffff16815260200191505060405180910390f35b341561019d57600080fd5b6101c9600480803573ffffffffffffffffffffffffffffffffffffffff169060200190919050506105aa565b005b6000809054906101000a900473ffffffffffffffffffffffffffffffffffffffff1673ffffffffffffffffffffffffffffffffffffffff163373ffffffffffffffffffffffffffffffffffffffff1614151561022357fe5b8260008173ffffffffffffffffffffffffffffffffffffffff161415151561024a57600080fd5b8260008173ffffffffffffffffffffffffffffffffffffffff161415151561027157600080fd5b833073ffffffffffffffffffffffffffffffffffffffff168173ffffffffffffffffffffffffffffffffffffffff16141515156102ad57600080fd5b8573ffffffffffffffffffffffffffffffffffffffff1663a9059cbb86866000604051602001526040518363ffffffff167c0100000000000000000000000000000000000000000000000000000000028152600401808373ffffffffffffffffffffffffffffffffffffffff1673ffffffffffffffffffffffffffffffffffffffff16815260200182815260200192505050602060405180830381600087803b151561035857600080fd5b6102c65a03f1151561036957600080fd5b50505060405180519050151561037b57fe5b505050505050565b600160009054906101000a900473ffffffffffffffffffffffffffffffffffffffff1673ffffffffffffffffffffffffffffffffffffffff163373ffffffffffffffffffffffffffffffffffffffff161415156103df57600080fd5b7f343765429aea5a34b3ff6a3785a98a5abb2597aca87bfbb58632c173d585373a6000809054906101000a900473ffffffffffffffffffffffffffffffffffffffff16600160009054906101000a900473ffffffffffffffffffffffffffffffffffffffff16604051808373ffffffffffffffffffffffffffffffffffffffff1673ffffffffffffffffffffffffffffffffffffffff1681526020018273ffffffffffffffffffffffffffffffffffffffff1673ffffffffffffffffffffffffffffffffffffffff1681526020019250505060405180910390a1600160009054906101000a900473ffffffffffffffffffffffffffffffffffffffff166000806101000a81548173ffffffffffffffffffffffffffffffffffffffff021916908373ffffffffffffffffffffffffffffffffffffffff1602179055506000600160006101000a81548173ffffffffffffffffffffffffffffffffffffffff021916908373ffffffffffffffffffffffffffffffffffffffff160217905550565b6000809054906101000a900473ffffffffffffffffffffffffffffffffffffffff1681565b600160009054906101000a900473ffffffffffffffffffffffffffffffffffffffff1681565b6000809054906101000a900473ffffffffffffffffffffffffffffffffffffffff1673ffffffffffffffffffffffffffffffffffffffff163373ffffffffffffffffffffffffffffffffffffffff1614151561060257fe5b6000809054906101000a900473ffffffffffffffffffffffffffffffffffffffff1673ffffffffffffffffffffffffffffffffffffffff168173ffffffffffffffffffffffffffffffffffffffff161415151561065e57600080fd5b80600160006101000a81548173ffffffffffffffffffffffffffffffffffffffff021916908373ffffffffffffffffffffffffffffffffffffffff160217905550505600a165627a7a723058209196d6065588e807764c2dc80f39198c454057cb38cd2926c0df3f8725f4e20e0029",
  "source": "pragma solidity ^0.4.11;\nimport './Owned.sol';\nimport './Utils.sol';\nimport './interfaces/IERC20Token.sol';\nimport './interfaces/ITokenHolder.sol';\n\n/*\n    We consider every contract to be a 'token holder' since it's currently not possible\n    for a contract to deny receiving tokens.\n\n    The TokenHolder's contract sole purpose is to provide a safety mechanism that allows\n    the owner to send tokens that were sent to the contract by mistake back to their sender.\n*/\ncontract TokenHolder is ITokenHolder, Owned, Utils {\n    /**\n        @dev constructor\n    */\n    function TokenHolder() {\n    }\n\n    /**\n        @dev withdraws tokens held by the contract and sends them to an account\n        can only be called by the owner\n\n        @param _token   ERC20 token contract address\n        @param _to      account to receive the new amount\n        @param _amount  amount to withdraw\n    */\n    function withdrawTokens(IERC20Token _token, address _to, uint256 _amount)\n        public\n        ownerOnly\n        validAddress(_token)\n        validAddress(_to)\n        notThis(_to)\n    {\n        assert(_token.transfer(_to, _amount));\n    }\n}\n",
  "sourcePath": "C:\\Users\\Diel\\Desktop\\MetaToro\\Genun Wallet\\Genun Contracts\\solidity\\contracts\\TokenHolder.sol",
  "compiler": {
    "name": "solc",
    "version": "0.4.18+commit.9cf6e910.Emscripten.clang"
  },
  "schemaVersion": "1.0.1",
  "updatedAt": "2018-01-10T17:47:28.106Z"
}